{
  "contractName": "ERC1155_token",
  "abi": [
    {
      "inputs": [
        {
          "internalType": "address",
          "name": "_IECO",
          "type": "address"
        },
        {
          "internalType": "address",
          "name": "_SkinNFT",
          "type": "address"
        }
      ],
      "stateMutability": "nonpayable",
      "type": "constructor"
    },
    {
      "anonymous": false,
      "inputs": [
        {
          "indexed": true,
          "internalType": "address",
          "name": "account",
          "type": "address"
        },
        {
          "indexed": true,
          "internalType": "address",
          "name": "operator",
          "type": "address"
        },
        {
          "indexed": false,
          "internalType": "bool",
          "name": "approved",
          "type": "bool"
        }
      ],
      "name": "ApprovalForAll",
      "type": "event"
    },
    {
      "anonymous": false,
      "inputs": [
        {
          "indexed": true,
          "internalType": "uint256",
          "name": "tokenId",
          "type": "uint256"
        }
      ],
      "name": "CharacterRegistered",
      "type": "event"
    },
    {
      "anonymous": false,
      "inputs": [
        {
          "indexed": true,
          "internalType": "address",
          "name": "previousOwner",
          "type": "address"
        },
        {
          "indexed": true,
          "internalType": "address",
          "name": "newOwner",
          "type": "address"
        }
      ],
      "name": "OwnershipTransferred",
      "type": "event"
    },
    {
      "anonymous": false,
      "inputs": [
        {
          "indexed": true,
          "internalType": "uint256",
          "name": "tokenId",
          "type": "uint256"
        }
      ],
      "name": "SkinRegistered",
      "type": "event"
    },
    {
      "anonymous": false,
      "inputs": [
        {
          "indexed": true,
          "internalType": "address",
          "name": "operator",
          "type": "address"
        },
        {
          "indexed": true,
          "internalType": "address",
          "name": "from",
          "type": "address"
        },
        {
          "indexed": true,
          "internalType": "address",
          "name": "to",
          "type": "address"
        },
        {
          "indexed": false,
          "internalType": "uint256[]",
          "name": "ids",
          "type": "uint256[]"
        },
        {
          "indexed": false,
          "internalType": "uint256[]",
          "name": "values",
          "type": "uint256[]"
        }
      ],
      "name": "TransferBatch",
      "type": "event"
    },
    {
      "anonymous": false,
      "inputs": [
        {
          "indexed": true,
          "internalType": "address",
          "name": "operator",
          "type": "address"
        },
        {
          "indexed": true,
          "internalType": "address",
          "name": "from",
          "type": "address"
        },
        {
          "indexed": true,
          "internalType": "address",
          "name": "to",
          "type": "address"
        },
        {
          "indexed": false,
          "internalType": "uint256",
          "name": "id",
          "type": "uint256"
        },
        {
          "indexed": false,
          "internalType": "uint256",
          "name": "value",
          "type": "uint256"
        }
      ],
      "name": "TransferSingle",
      "type": "event"
    },
    {
      "anonymous": false,
      "inputs": [
        {
          "indexed": false,
          "internalType": "string",
          "name": "value",
          "type": "string"
        },
        {
          "indexed": true,
          "internalType": "uint256",
          "name": "id",
          "type": "uint256"
        }
      ],
      "name": "URI",
      "type": "event"
    },
    {
      "inputs": [],
      "name": "GameMaster",
      "outputs": [
        {
          "internalType": "address",
          "name": "",
          "type": "address"
        }
      ],
      "stateMutability": "view",
      "type": "function",
      "constant": true
    },
    {
      "inputs": [
        {
          "internalType": "uint256",
          "name": "",
          "type": "uint256"
        }
      ],
      "name": "_characters",
      "outputs": [
        {
          "internalType": "enum ERC1155_token.CharacterStatus",
          "name": "_characterStatus",
          "type": "uint8"
        },
        {
          "internalType": "uint256",
          "name": "price",
          "type": "uint256"
        },
        {
          "internalType": "address",
          "name": "characterOwner",
          "type": "address"
        }
      ],
      "stateMutability": "view",
      "type": "function",
      "constant": true
    },
    {
      "inputs": [
        {
          "internalType": "address",
          "name": "account",
          "type": "address"
        },
        {
          "internalType": "uint256",
          "name": "id",
          "type": "uint256"
        }
      ],
      "name": "balanceOf",
      "outputs": [
        {
          "internalType": "uint256",
          "name": "",
          "type": "uint256"
        }
      ],
      "stateMutability": "view",
      "type": "function",
      "constant": true
    },
    {
      "inputs": [
        {
          "internalType": "address[]",
          "name": "accounts",
          "type": "address[]"
        },
        {
          "internalType": "uint256[]",
          "name": "ids",
          "type": "uint256[]"
        }
      ],
      "name": "balanceOfBatch",
      "outputs": [
        {
          "internalType": "uint256[]",
          "name": "",
          "type": "uint256[]"
        }
      ],
      "stateMutability": "view",
      "type": "function",
      "constant": true
    },
    {
      "inputs": [
        {
          "internalType": "address",
          "name": "account",
          "type": "address"
        },
        {
          "internalType": "address",
          "name": "operator",
          "type": "address"
        }
      ],
      "name": "isApprovedForAll",
      "outputs": [
        {
          "internalType": "bool",
          "name": "",
          "type": "bool"
        }
      ],
      "stateMutability": "view",
      "type": "function",
      "constant": true
    },
    {
      "inputs": [],
      "name": "owner",
      "outputs": [
        {
          "internalType": "address",
          "name": "",
          "type": "address"
        }
      ],
      "stateMutability": "view",
      "type": "function",
      "constant": true
    },
    {
      "inputs": [],
      "name": "renounceOwnership",
      "outputs": [],
      "stateMutability": "nonpayable",
      "type": "function"
    },
    {
      "inputs": [
        {
          "internalType": "address",
          "name": "from",
          "type": "address"
        },
        {
          "internalType": "address",
          "name": "to",
          "type": "address"
        },
        {
          "internalType": "uint256[]",
          "name": "ids",
          "type": "uint256[]"
        },
        {
          "internalType": "uint256[]",
          "name": "amounts",
          "type": "uint256[]"
        },
        {
          "internalType": "bytes",
          "name": "data",
          "type": "bytes"
        }
      ],
      "name": "safeBatchTransferFrom",
      "outputs": [],
      "stateMutability": "nonpayable",
      "type": "function"
    },
    {
      "inputs": [
        {
          "internalType": "address",
          "name": "from",
          "type": "address"
        },
        {
          "internalType": "address",
          "name": "to",
          "type": "address"
        },
        {
          "internalType": "uint256",
          "name": "id",
          "type": "uint256"
        },
        {
          "internalType": "uint256",
          "name": "amount",
          "type": "uint256"
        },
        {
          "internalType": "bytes",
          "name": "data",
          "type": "bytes"
        }
      ],
      "name": "safeTransferFrom",
      "outputs": [],
      "stateMutability": "nonpayable",
      "type": "function"
    },
    {
      "inputs": [
        {
          "internalType": "address",
          "name": "operator",
          "type": "address"
        },
        {
          "internalType": "bool",
          "name": "approved",
          "type": "bool"
        }
      ],
      "name": "setApprovalForAll",
      "outputs": [],
      "stateMutability": "nonpayable",
      "type": "function"
    },
    {
      "inputs": [
        {
          "internalType": "bytes4",
          "name": "interfaceId",
          "type": "bytes4"
        }
      ],
      "name": "supportsInterface",
      "outputs": [
        {
          "internalType": "bool",
          "name": "",
          "type": "bool"
        }
      ],
      "stateMutability": "view",
      "type": "function",
      "constant": true
    },
    {
      "inputs": [
        {
          "internalType": "address",
          "name": "newOwner",
          "type": "address"
        }
      ],
      "name": "transferOwnership",
      "outputs": [],
      "stateMutability": "nonpayable",
      "type": "function"
    },
    {
      "inputs": [
        {
          "internalType": "uint256",
          "name": "",
          "type": "uint256"
        }
      ],
      "name": "uri",
      "outputs": [
        {
          "internalType": "string",
          "name": "",
          "type": "string"
        }
      ],
      "stateMutability": "view",
      "type": "function",
      "constant": true
    },
    {
      "inputs": [
        {
          "internalType": "address",
          "name": "_to",
          "type": "address"
        }
      ],
      "name": "GiveGold_to_User",
      "outputs": [],
      "stateMutability": "nonpayable",
      "type": "function"
    },
    {
      "inputs": [
        {
          "internalType": "string",
          "name": "_name",
          "type": "string"
        },
        {
          "internalType": "uint256",
          "name": "_price",
          "type": "uint256"
        }
      ],
      "name": "RegisterItem",
      "outputs": [],
      "stateMutability": "nonpayable",
      "type": "function"
    },
    {
      "inputs": [
        {
          "internalType": "uint256",
          "name": "_id",
          "type": "uint256"
        }
      ],
      "name": "PurchaseItem",
      "outputs": [],
      "stateMutability": "nonpayable",
      "type": "function"
    },
    {
      "inputs": [
        {
          "internalType": "uint256",
          "name": "_id",
          "type": "uint256"
        }
      ],
      "name": "displayItems",
      "outputs": [
        {
          "internalType": "uint256",
          "name": "",
          "type": "uint256"
        },
        {
          "internalType": "string",
          "name": "",
          "type": "string"
        },
        {
          "internalType": "uint256",
          "name": "",
          "type": "uint256"
        }
      ],
      "stateMutability": "view",
      "type": "function",
      "constant": true
    },
    {
      "inputs": [],
      "name": "registerCharacter",
      "outputs": [
        {
          "internalType": "uint256",
          "name": "",
          "type": "uint256"
        }
      ],
      "stateMutability": "nonpayable",
      "type": "function"
    },
    {
      "inputs": [
        {
          "internalType": "address",
          "name": "owner",
          "type": "address"
        },
        {
          "internalType": "uint256",
          "name": "CharacterId",
          "type": "uint256"
        }
      ],
      "name": "unregisterCharacter",
      "outputs": [],
      "stateMutability": "nonpayable",
      "type": "function"
    },
    {
      "inputs": [
        {
          "internalType": "uint256",
          "name": "SkinId",
          "type": "uint256"
        }
      ],
      "name": "searchSkinPrice",
      "outputs": [
        {
          "internalType": "uint256",
          "name": "",
          "type": "uint256"
        }
      ],
      "stateMutability": "view",
      "type": "function",
      "constant": true
    },
    {
      "inputs": [
        {
          "internalType": "uint256",
          "name": "CharacterId",
          "type": "uint256"
        },
        {
          "internalType": "uint256",
          "name": "SkinTokenId",
          "type": "uint256"
        }
      ],
      "name": "buyCharacterSkinNFT",
      "outputs": [],
      "stateMutability": "nonpayable",
      "type": "function"
    },
    {
      "inputs": [
        {
          "internalType": "uint256",
          "name": "SkinTokenId",
          "type": "uint256"
        }
      ],
      "name": "buyNFT",
      "outputs": [],
      "stateMutability": "nonpayable",
      "type": "function"
    },
    {
      "inputs": [
        {
          "internalType": "uint256",
          "name": "CharacterId",
          "type": "uint256"
        },
        {
          "internalType": "uint256",
          "name": "SkinTokenId",
          "type": "uint256"
        }
      ],
      "name": "DisplaySkinNFTForSale",
      "outputs": [],
      "stateMutability": "nonpayable",
      "type": "function"
    },
    {
      "inputs": [
        {
          "internalType": "uint256",
          "name": "CharacterId",
          "type": "uint256"
        },
        {
          "internalType": "uint256",
          "name": "SkinTokenId",
          "type": "uint256"
        }
      ],
      "name": "UndisplaySkinNFTForSale",
      "outputs": [],
      "stateMutability": "nonpayable",
      "type": "function"
    },
    {
      "inputs": [
        {
          "internalType": "uint256",
          "name": "SkinTokenId",
          "type": "uint256"
        },
        {
          "internalType": "uint256",
          "name": "price",
          "type": "uint256"
        }
      ],
      "name": "changeNFTPrice",
      "outputs": [],
      "stateMutability": "nonpayable",
      "type": "function"
    },
    {
      "inputs": [
        {
          "internalType": "uint256",
          "name": "CharacterId",
          "type": "uint256"
        },
        {
          "internalType": "string",
          "name": "tokenURI",
          "type": "string"
        },
        {
          "internalType": "uint256",
          "name": "price",
          "type": "uint256"
        }
      ],
      "name": "mintSkinNFT",
      "outputs": [
        {
          "internalType": "uint256",
          "name": "",
          "type": "uint256"
        }
      ],
      "stateMutability": "nonpayable",
      "type": "function"
    },
    {
      "inputs": [
        {
          "internalType": "uint256",
          "name": "CharacterId",
          "type": "uint256"
        }
      ],
      "name": "searchCharacter",
      "outputs": [
        {
          "internalType": "uint256",
          "name": "",
          "type": "uint256"
        }
      ],
      "stateMutability": "view",
      "type": "function",
      "constant": true
    },
    {
      "inputs": [
        {
          "internalType": "uint256",
          "name": "CharacterId",
          "type": "uint256"
        }
      ],
      "name": "buyCharacter",
      "outputs": [],
      "stateMutability": "payable",
      "type": "function",
      "payable": true
    },
    {
      "inputs": [
        {
          "internalType": "address",
          "name": "buyer",
          "type": "address"
        }
      ],
      "name": "set",
      "outputs": [],
      "stateMutability": "nonpayable",
      "type": "function"
    },
    {
      "inputs": [
        {
          "internalType": "address",
          "name": "buyer",
          "type": "address"
        }
      ],
      "name": "setup",
      "outputs": [],
      "stateMutability": "nonpayable",
      "type": "function"
    },
    {
      "inputs": [
        {
          "internalType": "uint256",
          "name": "CharacterId",
          "type": "uint256"
        },
        {
          "internalType": "uint256",
          "name": "price",
          "type": "uint256"
        }
      ],
      "name": "changeCharacterPrice",
      "outputs": [],
      "stateMutability": "nonpayable",
      "type": "function"
    },
    {
      "inputs": [
        {
          "internalType": "uint256",
          "name": "CharacterId",
          "type": "uint256"
        }
      ],
      "name": "DisplayCharacterForSale",
      "outputs": [],
      "stateMutability": "nonpayable",
      "type": "function"
    },
    {
      "inputs": [
        {
          "internalType": "uint256",
          "name": "CharacterId",
          "type": "uint256"
        }
      ],
      "name": "UndisplayCharacter",
      "outputs": [],
      "stateMutability": "nonpayable",
      "type": "function"
    },
    {
      "inputs": [
        {
          "internalType": "uint256",
          "name": "From",
          "type": "uint256"
        },
        {
          "internalType": "uint256",
          "name": "To",
          "type": "uint256"
        },
        {
          "internalType": "uint256",
          "name": "NFT",
          "type": "uint256"
        }
      ],
      "name": "TransferNFTBetweenCharacters",
      "outputs": [],
      "stateMutability": "nonpayable",
      "type": "function"
    },
    {
      "inputs": [
        {
          "internalType": "uint256",
          "name": "CharacterId",
          "type": "uint256"
        }
      ],
      "name": "ShowAllSkinsOwnedByCharacter",
      "outputs": [
        {
          "internalType": "uint256[]",
          "name": "",
          "type": "uint256[]"
        }
      ],
      "stateMutability": "view",
      "type": "function",
      "constant": true
    },
    {
      "inputs": [
        {
          "internalType": "string",
          "name": "tokenURI",
          "type": "string"
        },
        {
          "internalType": "uint256",
          "name": "price",
          "type": "uint256"
        }
      ],
      "name": "mintNFT",
      "outputs": [
        {
          "internalType": "uint256",
          "name": "",
          "type": "uint256"
        }
      ],
      "stateMutability": "nonpayable",
      "type": "function"
    },
    {
      "inputs": [
        {
          "internalType": "uint256",
          "name": "tokenId",
          "type": "uint256"
        }
      ],
      "name": "buyNFTItem",
      "outputs": [],
      "stateMutability": "payable",
      "type": "function",
      "payable": true
    },
    {
      "inputs": [
        {
          "internalType": "uint256",
          "name": "tokenId",
          "type": "uint256"
        },
        {
          "internalType": "uint256",
          "name": "price",
          "type": "uint256"
        }
      ],
      "name": "changeTokenPrice",
      "outputs": [],
      "stateMutability": "nonpayable",
      "type": "function"
    },
    {
      "inputs": [
        {
          "internalType": "uint256",
          "name": "tokenId",
          "type": "uint256"
        }
      ],
      "name": "DisplayItem",
      "outputs": [],
      "stateMutability": "nonpayable",
      "type": "function"
    },
    {
      "inputs": [
        {
          "internalType": "uint256",
          "name": "tokenId",
          "type": "uint256"
        }
      ],
      "name": "UndisplayItem",
      "outputs": [],
      "stateMutability": "nonpayable",
      "type": "function"
    },
    {
      "inputs": [],
      "name": "IsGameMaster",
      "outputs": [
        {
          "internalType": "bool",
          "name": "",
          "type": "bool"
        }
      ],
      "stateMutability": "view",
      "type": "function",
      "constant": true
    }
  ],
  "bytecode": "0x60806040523480156200001157600080fd5b506040516200614c3803806200614c8339818101604052810190620000379190620002b7565b6040518060400160405280600981526020017f43686172616374657200000000000000000000000000000000000000000000008152506200007e816200016a60201b60201c565b506200009f620000936200017f60201b60201c565b6200018760201b60201c565b80600660006101000a81548173ffffffffffffffffffffffffffffffffffffffff021916908373ffffffffffffffffffffffffffffffffffffffff16021790555081600560006101000a81548173ffffffffffffffffffffffffffffffffffffffff021916908373ffffffffffffffffffffffffffffffffffffffff16021790555033600760006101000a81548173ffffffffffffffffffffffffffffffffffffffff021916908373ffffffffffffffffffffffffffffffffffffffff16021790555050506200065f565b80600290816200017b919062000578565b5050565b600033905090565b6000600360009054906101000a900473ffffffffffffffffffffffffffffffffffffffff16905081600360006101000a81548173ffffffffffffffffffffffffffffffffffffffff021916908373ffffffffffffffffffffffffffffffffffffffff1602179055508173ffffffffffffffffffffffffffffffffffffffff168173ffffffffffffffffffffffffffffffffffffffff167f8be0079c531659141344cd1fd0a4f28419497f9722a3daafe3b4186f6b6457e060405160405180910390a35050565b600080fd5b600073ffffffffffffffffffffffffffffffffffffffff82169050919050565b60006200027f8262000252565b9050919050565b620002918162000272565b81146200029d57600080fd5b50565b600081519050620002b18162000286565b92915050565b60008060408385031215620002d157620002d06200024d565b5b6000620002e185828601620002a0565b9250506020620002f485828601620002a0565b9150509250929050565b600081519050919050565b7f4e487b7100000000000000000000000000000000000000000000000000000000600052604160045260246000fd5b7f4e487b7100000000000000000000000000000000000000000000000000000000600052602260045260246000fd5b600060028204905060018216806200038057607f821691505b60208210810362000396576200039562000338565b5b50919050565b60008190508160005260206000209050919050565b60006020601f8301049050919050565b600082821b905092915050565b600060088302620004007fffffffffffffffffffffffffffffffffffffffffffffffffffffffffffffffff82620003c1565b6200040c8683620003c1565b95508019841693508086168417925050509392505050565b6000819050919050565b6000819050919050565b600062000459620004536200044d8462000424565b6200042e565b62000424565b9050919050565b6000819050919050565b620004758362000438565b6200048d620004848262000460565b848454620003ce565b825550505050565b600090565b620004a462000495565b620004b18184846200046a565b505050565b5b81811015620004d957620004cd6000826200049a565b600181019050620004b7565b5050565b601f8211156200052857620004f2816200039c565b620004fd84620003b1565b810160208510156200050d578190505b620005256200051c85620003b1565b830182620004b6565b50505b505050565b600082821c905092915050565b60006200054d600019846008026200052d565b1980831691505092915050565b60006200056883836200053a565b9150826002028217905092915050565b6200058382620002fe565b67ffffffffffffffff8111156200059f576200059e62000309565b5b620005ab825462000367565b620005b8828285620004dd565b600060209050601f831160018114620005f05760008415620005db578287015190505b620005e785826200055a565b86555062000657565b601f19841662000600866200039c565b60005b828110156200062a5784890151825560018201915060208501945060208101905062000603565b868310156200064a578489015162000646601f8916826200053a565b8355505b6001600288020188555050505b505050505050565b615add806200066f6000396000f3fe6080604052600436106102455760003560e01c806366d3820311610139578063a22cb465116100b6578063e5e1529a1161007a578063e5e1529a146108a1578063e985e9c5146108ca578063eb33574b14610907578063eff01f8d14610930578063f242432a14610959578063f2fde38b1461098257610245565b8063a22cb465146107aa578063c72153f8146107d3578063caad1c7514610812578063cc76cd151461083b578063ddd597261461086457610245565b806388c09e43116100fd57806388c09e43146106d25780638bc33d52146106ee5780638c4b45401461072b5780638da5cb5b14610754578063907c156b1461077f57610245565b806366d3820314610624578063715018a61461064d57806383a91f56146106645780638460ab2d1461068057806384d4d0da146106a957610245565b80632eb2c2d6116101c75780635448503a1161018b5780635448503a1461052f578063590e73991461056c5780635afa3a72146105955780635c9f305d146105d257806362e8e8ac146105fb57610245565b80632eb2c2d61461044c5780633ac25750146104755780633f4875081461049e5780634e1273f4146104c957806351ed82881461050657610245565b8063167e11741161020e578063167e117414610369578063168ebd9014610394578063261eb549146103bd57806326fd5fbc146103fa5780632801617e1461042357610245565b8062fdd58e1461024a57806301ffc9a7146102875780630575e648146102c45780630e89341c146103035780630fd76c7c14610340575b600080fd5b34801561025657600080fd5b50610271600480360381019061026c9190613c6a565b6109ab565b60405161027e9190613cb9565b60405180910390f35b34801561029357600080fd5b506102ae60048036038101906102a99190613d2c565b610a73565b6040516102bb9190613d74565b60405180910390f35b3480156102d057600080fd5b506102eb60048036038101906102e69190613d8f565b610b55565b6040516102fa93929190613e4c565b60405180910390f35b34801561030f57600080fd5b5061032a60048036038101906103259190613d8f565b610c1c565b6040516103379190613e8a565b60405180910390f35b34801561034c57600080fd5b5061036760048036038101906103629190613eac565b610cb0565b005b34801561037557600080fd5b5061037e610d43565b60405161038b9190613d74565b60405180910390f35b3480156103a057600080fd5b506103bb60048036038101906103b69190613eec565b610dab565b005b3480156103c957600080fd5b506103e460048036038101906103df9190613d8f565b610e3b565b6040516103f19190613fd7565b60405180910390f35b34801561040657600080fd5b50610421600480360381019061041c9190613eac565b610ea9565b005b34801561042f57600080fd5b5061044a60048036038101906104459190613eec565b610fe2565b005b34801561045857600080fd5b50610473600480360381019061046e91906141f6565b610ff0565b005b34801561048157600080fd5b5061049c60048036038101906104979190613d8f565b611091565b005b3480156104aa57600080fd5b506104b36111aa565b6040516104c091906142d4565b60405180910390f35b3480156104d557600080fd5b506104f060048036038101906104eb91906143b2565b6111d0565b6040516104fd9190613fd7565b60405180910390f35b34801561051257600080fd5b5061052d60048036038101906105289190613d8f565b6112e9565b005b34801561053b57600080fd5b5061055660048036038101906105519190613d8f565b611379565b6040516105639190613cb9565b60405180910390f35b34801561057857600080fd5b50610593600480360381019061058e9190613d8f565b61141e565b005b3480156105a157600080fd5b506105bc60048036038101906105b791906144cb565b611591565b6040516105c99190613cb9565b60405180910390f35b3480156105de57600080fd5b506105f960048036038101906105f491906144cb565b61166d565b005b34801561060757600080fd5b50610622600480360381019061061d9190613eac565b611700565b005b34801561063057600080fd5b5061064b60048036038101906106469190613eec565b611793565b005b34801561065957600080fd5b50610662611823565b005b61067e60048036038101906106799190613d8f565b611837565b005b34801561068c57600080fd5b506106a760048036038101906106a29190614527565b611b98565b005b3480156106b557600080fd5b506106d060048036038101906106cb9190613c6a565b611cf7565b005b6106ec60048036038101906106e79190613d8f565b611d0f565b005b3480156106fa57600080fd5b506107156004803603810190610710919061457a565b611d9f565b6040516107229190613cb9565b60405180910390f35b34801561073757600080fd5b50610752600480360381019061074d9190613eac565b611e8c565b005b34801561076057600080fd5b50610769611fec565b60405161077691906142d4565b60405180910390f35b34801561078b57600080fd5b50610794612016565b6040516107a19190613cb9565b60405180910390f35b3480156107b657600080fd5b506107d160048036038101906107cc9190614615565b6121cf565b005b3480156107df57600080fd5b506107fa60048036038101906107f59190613d8f565b6121e5565b604051610809939291906146cc565b60405180910390f35b34801561081e57600080fd5b5061083960048036038101906108349190613eac565b61223c565b005b34801561084757600080fd5b50610862600480360381019061085d9190613eac565b6123ba565b005b34801561087057600080fd5b5061088b60048036038101906108869190613d8f565b6124d6565b6040516108989190613cb9565b60405180910390f35b3480156108ad57600080fd5b506108c860048036038101906108c39190613d8f565b61257f565b005b3480156108d657600080fd5b506108f160048036038101906108ec9190614703565b61260f565b6040516108fe9190613d74565b60405180910390f35b34801561091357600080fd5b5061092e60048036038101906109299190613d8f565b6126a3565b005b34801561093c57600080fd5b5061095760048036038101906109529190613d8f565b612733565b005b34801561096557600080fd5b50610980600480360381019061097b9190614743565b6127c3565b005b34801561098e57600080fd5b506109a960048036038101906109a49190613eec565b612864565b005b60008073ffffffffffffffffffffffffffffffffffffffff168373ffffffffffffffffffffffffffffffffffffffff1603610a1b576040517f08c379a0000000000000000000000000000000000000000000000000000000008152600401610a129061484c565b60405180910390fd5b60008083815260200190815260200160002060008473ffffffffffffffffffffffffffffffffffffffff1673ffffffffffffffffffffffffffffffffffffffff16815260200190815260200160002054905092915050565b60007fd9b67a26000000000000000000000000000000000000000000000000000000007bffffffffffffffffffffffffffffffffffffffffffffffffffffffff1916827bffffffffffffffffffffffffffffffffffffffffffffffffffffffff19161480610b3e57507f0e89341c000000000000000000000000000000000000000000000000000000007bffffffffffffffffffffffffffffffffffffffffffffffffffffffff1916827bffffffffffffffffffffffffffffffffffffffffffffffffffffffff1916145b80610b4e5750610b4d826128e7565b5b9050919050565b60006060600080600560009054906101000a900473ffffffffffffffffffffffffffffffffffffffff1673ffffffffffffffffffffffffffffffffffffffff16630575e648866040518263ffffffff1660e01b8152600401610bb79190613cb9565b600060405180830381865afa158015610bd4573d6000803e3d6000fd5b505050506040513d6000823e3d601f19601f82011682018060405250810190610bfd919061497b565b9050806000015181602001518260400151935093509350509193909250565b606060028054610c2b906149f3565b80601f0160208091040260200160405190810160405280929190818152602001828054610c57906149f3565b8015610ca45780601f10610c7957610100808354040283529160200191610ca4565b820191906000526020600020905b815481529060010190602001808311610c8757829003601f168201915b50505050509050919050565b600660009054906101000a900473ffffffffffffffffffffffffffffffffffffffff1673ffffffffffffffffffffffffffffffffffffffff166362e8e8ac83836040518363ffffffff1660e01b8152600401610d0d929190614a24565b600060405180830381600087803b158015610d2757600080fd5b505af1158015610d3b573d6000803e3d6000fd5b505050505050565b6000600760009054906101000a900473ffffffffffffffffffffffffffffffffffffffff1673ffffffffffffffffffffffffffffffffffffffff163373ffffffffffffffffffffffffffffffffffffffff1603610da35760019050610da8565b600090505b90565b600560009054906101000a900473ffffffffffffffffffffffffffffffffffffffff1673ffffffffffffffffffffffffffffffffffffffff166314d14d8a826040518263ffffffff1660e01b8152600401610e0691906142d4565b600060405180830381600087803b158015610e2057600080fd5b505af1158015610e34573d6000803e3d6000fd5b5050505050565b606060086000838152602001908152602001600020600201805480602002602001604051908101604052809291908181526020018280548015610e9d57602002820191906000526020600020905b815481526020019060010190808311610e89575b50505050509050919050565b816001610eb633836109ab565b14610ef6576040517f08c379a0000000000000000000000000000000000000000000000000000000008152600401610eed90614abf565b60405180910390fd5b600180811115610f0957610f08614655565b5b6008600085815260200190815260200160002060000160009054906101000a900460ff166001811115610f3f57610f3e614655565b5b14610f7f576040517f08c379a0000000000000000000000000000000000000000000000000000000008152600401610f7690614b51565b60405180910390fd5b60008211610fc2576040517f08c379a0000000000000000000000000000000000000000000000000000000008152600401610fb990614be3565b60405180910390fd5b816008600085815260200190815260200160002060010181905550505050565b610fed8160016121cf565b50565b610ff8612951565b73ffffffffffffffffffffffffffffffffffffffff168573ffffffffffffffffffffffffffffffffffffffff16148061103e575061103d85611038612951565b61260f565b5b61107d576040517f08c379a000000000000000000000000000000000000000000000000000000000815260040161107490614c75565b60405180910390fd5b61108a8585858585612959565b5050505050565b80600161109e33836109ab565b146110de576040517f08c379a00000000000000000000000000000000000000000000000000000000081526004016110d590614abf565b60405180910390fd5b6001808111156110f1576110f0614655565b5b6008600084815260200190815260200160002060000160009054906101000a900460ff16600181111561112757611126614655565b5b03611167576040517f08c379a000000000000000000000000000000000000000000000000000000000815260040161115e90614ce1565b60405180910390fd5b60016008600084815260200190815260200160002060000160006101000a81548160ff021916908360018111156111a1576111a0614655565b5b02179055505050565b600760009054906101000a900473ffffffffffffffffffffffffffffffffffffffff1681565b60608151835114611216576040517f08c379a000000000000000000000000000000000000000000000000000000000815260040161120d90614d73565b60405180910390fd5b6000835167ffffffffffffffff81111561123357611232613ffe565b5b6040519080825280602002602001820160405280156112615781602001602082028036833780820191505090505b50905060005b84518110156112de576112ae85828151811061128657611285614d93565b5b60200260200101518583815181106112a1576112a0614d93565b5b60200260200101516109ab565b8282815181106112c1576112c0614d93565b5b602002602001018181525050806112d790614df1565b9050611267565b508091505092915050565b600660009054906101000a900473ffffffffffffffffffffffffffffffffffffffff1673ffffffffffffffffffffffffffffffffffffffff166388c09e43826040518263ffffffff1660e01b81526004016113449190613cb9565b600060405180830381600087803b15801561135e57600080fd5b505af1158015611372573d6000803e3d6000fd5b5050505050565b6000600660009054906101000a900473ffffffffffffffffffffffffffffffffffffffff1673ffffffffffffffffffffffffffffffffffffffff16639b1122b0836040518263ffffffff1660e01b81526004016113d69190613cb9565b602060405180830381865afa1580156113f3573d6000803e3d6000fd5b505050506040513d601f19601f820116820180604052508101906114179190614e39565b9050919050565b80600161142b33836109ab565b1461146b576040517f08c379a000000000000000000000000000000000000000000000000000000000815260040161146290614abf565b60405180910390fd5b6000600181111561147f5761147e614655565b5b6008600084815260200190815260200160002060000160009054906101000a900460ff1660018111156114b5576114b4614655565b5b036114f5576040517f08c379a00000000000000000000000000000000000000000000000000000000081526004016114ec90614ed8565b60405180910390fd5b600060086000848152602001908152602001600020600101541161154e576040517f08c379a000000000000000000000000000000000000000000000000000000000815260040161154590614f6a565b60405180910390fd5b60006008600084815260200190815260200160002060000160006101000a81548160ff0219169083600181111561158857611587614655565b5b02179055505050565b600080600660009054906101000a900473ffffffffffffffffffffffffffffffffffffffff1673ffffffffffffffffffffffffffffffffffffffff16635afa3a7285856040518363ffffffff1660e01b81526004016115f1929190614f8a565b6020604051808303816000875af1158015611610573d6000803e3d6000fd5b505050506040513d601f19601f820116820180604052508101906116349190614e39565b9050807f39d5a38bdcd01914ac40cb7a0415e751ad0c43ba73cf969b2b6ceebf61ca462460405160405180910390a28091505092915050565b600560009054906101000a900473ffffffffffffffffffffffffffffffffffffffff1673ffffffffffffffffffffffffffffffffffffffff16638d520c6b83836040518363ffffffff1660e01b81526004016116ca929190614f8a565b600060405180830381600087803b1580156116e457600080fd5b505af11580156116f8573d6000803e3d6000fd5b505050505050565b600660009054906101000a900473ffffffffffffffffffffffffffffffffffffffff1673ffffffffffffffffffffffffffffffffffffffff166362e8e8ac83836040518363ffffffff1660e01b815260040161175d929190614a24565b600060405180830381600087803b15801561177757600080fd5b505af115801561178b573d6000803e3d6000fd5b505050505050565b600660009054906101000a900473ffffffffffffffffffffffffffffffffffffffff1673ffffffffffffffffffffffffffffffffffffffff166366d38203826040518263ffffffff1660e01b81526004016117ee91906142d4565b600060405180830381600087803b15801561180857600080fd5b505af115801561181c573d6000803e3d6000fd5b5050505050565b61182b612c7a565b6118356000612cf8565b565b6000600181111561184b5761184a614655565b5b6008600083815260200190815260200160002060000160009054906101000a900460ff16600181111561188157611880614655565b5b146118c1576040517f08c379a00000000000000000000000000000000000000000000000000000000081526004016118b890615006565b60405180910390fd5b60006118cd33836109ab565b1461190d576040517f08c379a000000000000000000000000000000000000000000000000000000000815260040161190490615072565b60405180910390fd5b6008600082815260200190815260200160002060010154341015611966576040517f08c379a000000000000000000000000000000000000000000000000000000000815260040161195d906150de565b60405180910390fd5b60006008600083815260200190815260200160002060030160009054906101000a900473ffffffffffffffffffffffffffffffffffffffff1690506119be8133846001604051806020016040528060008152506127c3565b8073ffffffffffffffffffffffffffffffffffffffff166108fc349081150290604051600060405180830381858888f19350505050158015611a04573d6000803e3d6000fd5b50336008600084815260200190815260200160002060030160006101000a81548173ffffffffffffffffffffffffffffffffffffffff021916908373ffffffffffffffffffffffffffffffffffffffff16021790555060016008600084815260200190815260200160002060000160006101000a81548160ff02191690836001811115611a9457611a93614655565b5b021790555060005b6008600084815260200190815260200160002060020180549050811015611b9357600660009054906101000a900473ffffffffffffffffffffffffffffffffffffffff1673ffffffffffffffffffffffffffffffffffffffff166342842e0e8333600860008881526020019081526020016000206002018581548110611b2557611b24614d93565b5b90600052602060002001546040518463ffffffff1660e01b8152600401611b4e939291906150fe565b600060405180830381600087803b158015611b6857600080fd5b505af1158015611b7c573d6000803e3d6000fd5b505050508080611b8b90614df1565b915050611a9c565b505050565b826001611ba533836109ab565b14611be5576040517f08c379a0000000000000000000000000000000000000000000000000000000008152600401611bdc90614abf565b60405180910390fd5b826001611bf233836109ab565b14611c32576040517f08c379a0000000000000000000000000000000000000000000000000000000008152600401611c2990614abf565b60405180910390fd5b8483611c536008600084815260200190815260200160002060020182612dbe565b611c92576040517f08c379a0000000000000000000000000000000000000000000000000000000008152600401611c8990615181565b60405180910390fd5b60086000878152602001908152602001600020600201859080600181540180825580915050600190039060005260206000200160009091909190915055611cee6008600089815260200190815260200160002060020186612e1f565b50505050505050565b611cff612c7a565b611d0b82826001612f00565b5050565b600660009054906101000a900473ffffffffffffffffffffffffffffffffffffffff1673ffffffffffffffffffffffffffffffffffffffff166388c09e43826040518263ffffffff1660e01b8152600401611d6a9190613cb9565b600060405180830381600087803b158015611d8457600080fd5b505af1158015611d98573d6000803e3d6000fd5b5050505050565b600080600660009054906101000a900473ffffffffffffffffffffffffffffffffffffffff1673ffffffffffffffffffffffffffffffffffffffff16635afa3a7285856040518363ffffffff1660e01b8152600401611dff929190614f8a565b6020604051808303816000875af1158015611e1e573d6000803e3d6000fd5b505050506040513d601f19601f82011682018060405250810190611e429190614e39565b905060086000868152602001908152602001600020600201819080600181540180825580915050600190039060005260206000200160009091909190915055809150509392505050565b816001611e9933836109ab565b14611ed9576040517f08c379a0000000000000000000000000000000000000000000000000000000008152600401611ed090614abf565b60405180910390fd5b8282611efa6008600084815260200190815260200160002060020182612dbe565b611f39576040517f08c379a0000000000000000000000000000000000000000000000000000000008152600401611f3090615181565b60405180910390fd5b600660009054906101000a900473ffffffffffffffffffffffffffffffffffffffff1673ffffffffffffffffffffffffffffffffffffffff1663e5e1529a856040518263ffffffff1660e01b8152600401611f949190613cb9565b600060405180830381600087803b158015611fae57600080fd5b505af1158015611fc2573d6000803e3d6000fd5b50505050611fe56008600087815260200190815260200160002060020185612e1f565b5050505050565b6000600360009054906101000a900473ffffffffffffffffffffffffffffffffffffffff16905090565b600080600454905061203a3382600160405180602001604052806000815250613146565b604051806080016040528060018081111561205857612057614655565b5b815260200160008152602001600067ffffffffffffffff81111561207f5761207e613ffe565b5b6040519080825280602002602001820160405280156120ad5781602001602082028036833780820191505090505b5081526020013373ffffffffffffffffffffffffffffffffffffffff168152506008600083815260200190815260200160002060008201518160000160006101000a81548160ff0219169083600181111561210b5761210a614655565b5b0217905550602082015181600101556040820151816002019080519060200190612136929190613b58565b5060608201518160030160006101000a81548173ffffffffffffffffffffffffffffffffffffffff021916908373ffffffffffffffffffffffffffffffffffffffff16021790555090505060016004600082825461219491906151a1565b92505081905550807fdd5514cd802d96cfb9e25cdf535606ee2ff275229d38b3fe5b5d95374109372360405160405180910390a28091505090565b6121e16121da612951565b83836132f6565b5050565b60086020528060005260406000206000915090508060000160009054906101000a900460ff16908060010154908060030160009054906101000a900473ffffffffffffffffffffffffffffffffffffffff16905083565b81600161224933836109ab565b14612289576040517f08c379a000000000000000000000000000000000000000000000000000000000815260040161228090614abf565b60405180910390fd5b82826122aa6008600084815260200190815260200160002060020182612dbe565b6122e9576040517f08c379a00000000000000000000000000000000000000000000000000000000081526004016122e090615181565b60405180910390fd5b600660009054906101000a900473ffffffffffffffffffffffffffffffffffffffff1673ffffffffffffffffffffffffffffffffffffffff1663eb33574b856040518263ffffffff1660e01b81526004016123449190613cb9565b600060405180830381600087803b15801561235e57600080fd5b505af1158015612372573d6000803e3d6000fd5b50505050600860008681526020019081526020016000206002018490806001815401808255809150506001900390600052602060002001600090919091909150555050505050565b8160016123c733836109ab565b14612407576040517f08c379a00000000000000000000000000000000000000000000000000000000081526004016123fe90614abf565b60405180910390fd5b600660009054906101000a900473ffffffffffffffffffffffffffffffffffffffff1673ffffffffffffffffffffffffffffffffffffffff166388c09e43836040518263ffffffff1660e01b81526004016124629190613cb9565b600060405180830381600087803b15801561247c57600080fd5b505af1158015612490573d6000803e3d6000fd5b5050505060086000848152602001908152602001600020600201829080600181540180825580915050600190039060005260206000200160009091909190915055505050565b60008060018111156124eb576124ea614655565b5b6008600084815260200190815260200160002060000160009054906101000a900460ff16600181111561252157612520614655565b5b14612561576040517f08c379a000000000000000000000000000000000000000000000000000000000815260040161255890615006565b60405180910390fd5b60086000838152602001908152602001600020600101549050919050565b600660009054906101000a900473ffffffffffffffffffffffffffffffffffffffff1673ffffffffffffffffffffffffffffffffffffffff1663e5e1529a826040518263ffffffff1660e01b81526004016125da9190613cb9565b600060405180830381600087803b1580156125f457600080fd5b505af1158015612608573d6000803e3d6000fd5b5050505050565b6000600160008473ffffffffffffffffffffffffffffffffffffffff1673ffffffffffffffffffffffffffffffffffffffff16815260200190815260200160002060008373ffffffffffffffffffffffffffffffffffffffff1673ffffffffffffffffffffffffffffffffffffffff16815260200190815260200160002060009054906101000a900460ff16905092915050565b600660009054906101000a900473ffffffffffffffffffffffffffffffffffffffff1673ffffffffffffffffffffffffffffffffffffffff1663eb33574b826040518263ffffffff1660e01b81526004016126fe9190613cb9565b600060405180830381600087803b15801561271857600080fd5b505af115801561272c573d6000803e3d6000fd5b5050505050565b600560009054906101000a900473ffffffffffffffffffffffffffffffffffffffff1673ffffffffffffffffffffffffffffffffffffffff1663f45e5df9826040518263ffffffff1660e01b815260040161278e9190613cb9565b600060405180830381600087803b1580156127a857600080fd5b505af11580156127bc573d6000803e3d6000fd5b5050505050565b6127cb612951565b73ffffffffffffffffffffffffffffffffffffffff168573ffffffffffffffffffffffffffffffffffffffff16148061281157506128108561280b612951565b61260f565b5b612850576040517f08c379a000000000000000000000000000000000000000000000000000000000815260040161284790614c75565b60405180910390fd5b61285d8585858585613462565b5050505050565b61286c612c7a565b600073ffffffffffffffffffffffffffffffffffffffff168173ffffffffffffffffffffffffffffffffffffffff16036128db576040517f08c379a00000000000000000000000000000000000000000000000000000000081526004016128d290615247565b60405180910390fd5b6128e481612cf8565b50565b60007f01ffc9a7000000000000000000000000000000000000000000000000000000007bffffffffffffffffffffffffffffffffffffffffffffffffffffffff1916827bffffffffffffffffffffffffffffffffffffffffffffffffffffffff1916149050919050565b600033905090565b815183511461299d576040517f08c379a0000000000000000000000000000000000000000000000000000000008152600401612994906152d9565b60405180910390fd5b600073ffffffffffffffffffffffffffffffffffffffff168473ffffffffffffffffffffffffffffffffffffffff1603612a0c576040517f08c379a0000000000000000000000000000000000000000000000000000000008152600401612a039061536b565b60405180910390fd5b6000612a16612951565b9050612a268187878787876136fd565b60005b8451811015612bd7576000858281518110612a4757612a46614d93565b5b602002602001015190506000858381518110612a6657612a65614d93565b5b60200260200101519050600080600084815260200190815260200160002060008b73ffffffffffffffffffffffffffffffffffffffff1673ffffffffffffffffffffffffffffffffffffffff16815260200190815260200160002054905081811015612b07576040517f08c379a0000000000000000000000000000000000000000000000000000000008152600401612afe906153fd565b60405180910390fd5b81810360008085815260200190815260200160002060008c73ffffffffffffffffffffffffffffffffffffffff1673ffffffffffffffffffffffffffffffffffffffff168152602001908152602001600020819055508160008085815260200190815260200160002060008b73ffffffffffffffffffffffffffffffffffffffff1673ffffffffffffffffffffffffffffffffffffffff1681526020019081526020016000206000828254612bbc91906151a1565b9250508190555050505080612bd090614df1565b9050612a29565b508473ffffffffffffffffffffffffffffffffffffffff168673ffffffffffffffffffffffffffffffffffffffff168273ffffffffffffffffffffffffffffffffffffffff167f4a39dc06d4c0dbc64b70af90fd698a233a518aa5d07e595d983b8c0526c8f7fb8787604051612c4e92919061541d565b60405180910390a4612c64818787878787613705565b612c7281878787878761370d565b505050505050565b612c82612951565b73ffffffffffffffffffffffffffffffffffffffff16612ca0611fec565b73ffffffffffffffffffffffffffffffffffffffff1614612cf6576040517f08c379a0000000000000000000000000000000000000000000000000000000008152600401612ced906154a0565b60405180910390fd5b565b6000600360009054906101000a900473ffffffffffffffffffffffffffffffffffffffff16905081600360006101000a81548173ffffffffffffffffffffffffffffffffffffffff021916908373ffffffffffffffffffffffffffffffffffffffff1602179055508173ffffffffffffffffffffffffffffffffffffffff168173ffffffffffffffffffffffffffffffffffffffff167f8be0079c531659141344cd1fd0a4f28419497f9722a3daafe3b4186f6b6457e060405160405180910390a35050565b600080600090505b8380549050811015612e135782848281548110612de657612de5614d93565b5b906000526020600020015403612e00576001915050612e19565b8080612e0b90614df1565b915050612dc6565b50600090505b92915050565b60005b8280549050811015612efa5781838281548110612e4257612e41614d93565b5b906000526020600020015403612ee75760018380549050612e6391906154c0565b811015612eba578260018480549050612e7c91906154c0565b81548110612e8d57612e8c614d93565b5b9060005260206000200154838281548110612eab57612eaa614d93565b5b90600052602060002001819055505b82805480612ecb57612eca6154f4565b5b6001900381819060005260206000200160009055905550612efc565b8080612ef290614df1565b915050612e22565b505b5050565b600073ffffffffffffffffffffffffffffffffffffffff168373ffffffffffffffffffffffffffffffffffffffff1603612f6f576040517f08c379a0000000000000000000000000000000000000000000000000000000008152600401612f6690615595565b60405180910390fd5b6000612f79612951565b90506000612f86846138e4565b90506000612f93846138e4565b9050612fb3838760008585604051806020016040528060008152506136fd565b600080600087815260200190815260200160002060008873ffffffffffffffffffffffffffffffffffffffff1673ffffffffffffffffffffffffffffffffffffffff1681526020019081526020016000205490508481101561304a576040517f08c379a000000000000000000000000000000000000000000000000000000000815260040161304190615627565b60405180910390fd5b84810360008088815260200190815260200160002060008973ffffffffffffffffffffffffffffffffffffffff1673ffffffffffffffffffffffffffffffffffffffff16815260200190815260200160002081905550600073ffffffffffffffffffffffffffffffffffffffff168773ffffffffffffffffffffffffffffffffffffffff168573ffffffffffffffffffffffffffffffffffffffff167fc3d58168c5ae7397731d063d5bbf3d657854427343f4c083240f7aacaa2d0f628989604051613117929190614a24565b60405180910390a461313d84886000868660405180602001604052806000815250613705565b50505050505050565b600073ffffffffffffffffffffffffffffffffffffffff168473ffffffffffffffffffffffffffffffffffffffff16036131b5576040517f08c379a00000000000000000000000000000000000000000000000000000000081526004016131ac906156b9565b60405180910390fd5b60006131bf612951565b905060006131cc856138e4565b905060006131d9856138e4565b90506131ea836000898585896136fd565b8460008088815260200190815260200160002060008973ffffffffffffffffffffffffffffffffffffffff1673ffffffffffffffffffffffffffffffffffffffff168152602001908152602001600020600082825461324991906151a1565b925050819055508673ffffffffffffffffffffffffffffffffffffffff16600073ffffffffffffffffffffffffffffffffffffffff168473ffffffffffffffffffffffffffffffffffffffff167fc3d58168c5ae7397731d063d5bbf3d657854427343f4c083240f7aacaa2d0f6289896040516132c7929190614a24565b60405180910390a46132de83600089858589613705565b6132ed8360008989898961395e565b50505050505050565b8173ffffffffffffffffffffffffffffffffffffffff168373ffffffffffffffffffffffffffffffffffffffff1603613364576040517f08c379a000000000000000000000000000000000000000000000000000000000815260040161335b9061574b565b60405180910390fd5b80600160008573ffffffffffffffffffffffffffffffffffffffff1673ffffffffffffffffffffffffffffffffffffffff16815260200190815260200160002060008473ffffffffffffffffffffffffffffffffffffffff1673ffffffffffffffffffffffffffffffffffffffff16815260200190815260200160002060006101000a81548160ff0219169083151502179055508173ffffffffffffffffffffffffffffffffffffffff168373ffffffffffffffffffffffffffffffffffffffff167f17307eab39ab6107e8899845ad3d59bd9653f200f220920489ca2b5937696c31836040516134559190613d74565b60405180910390a3505050565b600073ffffffffffffffffffffffffffffffffffffffff168473ffffffffffffffffffffffffffffffffffffffff16036134d1576040517f08c379a00000000000000000000000000000000000000000000000000000000081526004016134c89061536b565b60405180910390fd5b60006134db612951565b905060006134e8856138e4565b905060006134f5856138e4565b90506135058389898585896136fd565b600080600088815260200190815260200160002060008a73ffffffffffffffffffffffffffffffffffffffff1673ffffffffffffffffffffffffffffffffffffffff1681526020019081526020016000205490508581101561359c576040517f08c379a0000000000000000000000000000000000000000000000000000000008152600401613593906153fd565b60405180910390fd5b85810360008089815260200190815260200160002060008b73ffffffffffffffffffffffffffffffffffffffff1673ffffffffffffffffffffffffffffffffffffffff168152602001908152602001600020819055508560008089815260200190815260200160002060008a73ffffffffffffffffffffffffffffffffffffffff1673ffffffffffffffffffffffffffffffffffffffff168152602001908152602001600020600082825461365191906151a1565b925050819055508773ffffffffffffffffffffffffffffffffffffffff168973ffffffffffffffffffffffffffffffffffffffff168573ffffffffffffffffffffffffffffffffffffffff167fc3d58168c5ae7397731d063d5bbf3d657854427343f4c083240f7aacaa2d0f628a8a6040516136ce929190614a24565b60405180910390a46136e4848a8a86868a613705565b6136f2848a8a8a8a8a61395e565b505050505050505050565b505050505050565b505050505050565b61372c8473ffffffffffffffffffffffffffffffffffffffff16613b35565b156138dc578373ffffffffffffffffffffffffffffffffffffffff1663bc197c8187878686866040518663ffffffff1660e01b81526004016137729594939291906157c0565b6020604051808303816000875af19250505080156137ae57506040513d601f19601f820116820180604052508101906137ab919061583d565b60015b613853576137ba615877565b806308c379a00361381657506137ce615899565b806137d95750613818565b806040517f08c379a000000000000000000000000000000000000000000000000000000000815260040161380d9190613e8a565b60405180910390fd5b505b6040517f08c379a000000000000000000000000000000000000000000000000000000000815260040161384a9061599b565b60405180910390fd5b63bc197c8160e01b7bffffffffffffffffffffffffffffffffffffffffffffffffffffffff1916817bffffffffffffffffffffffffffffffffffffffffffffffffffffffff1916146138da576040517f08c379a00000000000000000000000000000000000000000000000000000000081526004016138d190615a2d565b60405180910390fd5b505b505050505050565b60606000600167ffffffffffffffff81111561390357613902613ffe565b5b6040519080825280602002602001820160405280156139315781602001602082028036833780820191505090505b509050828160008151811061394957613948614d93565b5b60200260200101818152505080915050919050565b61397d8473ffffffffffffffffffffffffffffffffffffffff16613b35565b15613b2d578373ffffffffffffffffffffffffffffffffffffffff1663f23a6e6187878686866040518663ffffffff1660e01b81526004016139c3959493929190615a4d565b6020604051808303816000875af19250505080156139ff57506040513d601f19601f820116820180604052508101906139fc919061583d565b60015b613aa457613a0b615877565b806308c379a003613a675750613a1f615899565b80613a2a5750613a69565b806040517f08c379a0000000000000000000000000000000000000000000000000000000008152600401613a5e9190613e8a565b60405180910390fd5b505b6040517f08c379a0000000000000000000000000000000000000000000000000000000008152600401613a9b9061599b565b60405180910390fd5b63f23a6e6160e01b7bffffffffffffffffffffffffffffffffffffffffffffffffffffffff1916817bffffffffffffffffffffffffffffffffffffffffffffffffffffffff191614613b2b576040517f08c379a0000000000000000000000000000000000000000000000000000000008152600401613b2290615a2d565b60405180910390fd5b505b505050505050565b6000808273ffffffffffffffffffffffffffffffffffffffff163b119050919050565b828054828255906000526020600020908101928215613b94579160200282015b82811115613b93578251825591602001919060010190613b78565b5b509050613ba19190613ba5565b5090565b5b80821115613bbe576000816000905550600101613ba6565b5090565b6000604051905090565b600080fd5b600080fd5b600073ffffffffffffffffffffffffffffffffffffffff82169050919050565b6000613c0182613bd6565b9050919050565b613c1181613bf6565b8114613c1c57600080fd5b50565b600081359050613c2e81613c08565b92915050565b6000819050919050565b613c4781613c34565b8114613c5257600080fd5b50565b600081359050613c6481613c3e565b92915050565b60008060408385031215613c8157613c80613bcc565b5b6000613c8f85828601613c1f565b9250506020613ca085828601613c55565b9150509250929050565b613cb381613c34565b82525050565b6000602082019050613cce6000830184613caa565b92915050565b60007fffffffff0000000000000000000000000000000000000000000000000000000082169050919050565b613d0981613cd4565b8114613d1457600080fd5b50565b600081359050613d2681613d00565b92915050565b600060208284031215613d4257613d41613bcc565b5b6000613d5084828501613d17565b91505092915050565b60008115159050919050565b613d6e81613d59565b82525050565b6000602082019050613d896000830184613d65565b92915050565b600060208284031215613da557613da4613bcc565b5b6000613db384828501613c55565b91505092915050565b600081519050919050565b600082825260208201905092915050565b60005b83811015613df6578082015181840152602081019050613ddb565b60008484015250505050565b6000601f19601f8301169050919050565b6000613e1e82613dbc565b613e288185613dc7565b9350613e38818560208601613dd8565b613e4181613e02565b840191505092915050565b6000606082019050613e616000830186613caa565b8181036020830152613e738185613e13565b9050613e826040830184613caa565b949350505050565b60006020820190508181036000830152613ea48184613e13565b905092915050565b60008060408385031215613ec357613ec2613bcc565b5b6000613ed185828601613c55565b9250506020613ee285828601613c55565b9150509250929050565b600060208284031215613f0257613f01613bcc565b5b6000613f1084828501613c1f565b91505092915050565b600081519050919050565b600082825260208201905092915050565b6000819050602082019050919050565b613f4e81613c34565b82525050565b6000613f608383613f45565b60208301905092915050565b6000602082019050919050565b6000613f8482613f19565b613f8e8185613f24565b9350613f9983613f35565b8060005b83811015613fca578151613fb18882613f54565b9750613fbc83613f6c565b925050600181019050613f9d565b5085935050505092915050565b60006020820190508181036000830152613ff18184613f79565b905092915050565b600080fd5b7f4e487b7100000000000000000000000000000000000000000000000000000000600052604160045260246000fd5b61403682613e02565b810181811067ffffffffffffffff8211171561405557614054613ffe565b5b80604052505050565b6000614068613bc2565b9050614074828261402d565b919050565b600067ffffffffffffffff82111561409457614093613ffe565b5b602082029050602081019050919050565b600080fd5b60006140bd6140b884614079565b61405e565b905080838252602082019050602084028301858111156140e0576140df6140a5565b5b835b8181101561410957806140f58882613c55565b8452602084019350506020810190506140e2565b5050509392505050565b600082601f83011261412857614127613ff9565b5b81356141388482602086016140aa565b91505092915050565b600080fd5b600067ffffffffffffffff82111561416157614160613ffe565b5b61416a82613e02565b9050602081019050919050565b82818337600083830152505050565b600061419961419484614146565b61405e565b9050828152602081018484840111156141b5576141b4614141565b5b6141c0848285614177565b509392505050565b600082601f8301126141dd576141dc613ff9565b5b81356141ed848260208601614186565b91505092915050565b600080600080600060a0868803121561421257614211613bcc565b5b600061422088828901613c1f565b955050602061423188828901613c1f565b945050604086013567ffffffffffffffff81111561425257614251613bd1565b5b61425e88828901614113565b935050606086013567ffffffffffffffff81111561427f5761427e613bd1565b5b61428b88828901614113565b925050608086013567ffffffffffffffff8111156142ac576142ab613bd1565b5b6142b8888289016141c8565b9150509295509295909350565b6142ce81613bf6565b82525050565b60006020820190506142e960008301846142c5565b92915050565b600067ffffffffffffffff82111561430a57614309613ffe565b5b602082029050602081019050919050565b600061432e614329846142ef565b61405e565b90508083825260208201905060208402830185811115614351576143506140a5565b5b835b8181101561437a57806143668882613c1f565b845260208401935050602081019050614353565b5050509392505050565b600082601f83011261439957614398613ff9565b5b81356143a984826020860161431b565b91505092915050565b600080604083850312156143c9576143c8613bcc565b5b600083013567ffffffffffffffff8111156143e7576143e6613bd1565b5b6143f385828601614384565b925050602083013567ffffffffffffffff81111561441457614413613bd1565b5b61442085828601614113565b9150509250929050565b600067ffffffffffffffff82111561444557614444613ffe565b5b61444e82613e02565b9050602081019050919050565b600061446e6144698461442a565b61405e565b90508281526020810184848401111561448a57614489614141565b5b614495848285614177565b509392505050565b600082601f8301126144b2576144b1613ff9565b5b81356144c284826020860161445b565b91505092915050565b600080604083850312156144e2576144e1613bcc565b5b600083013567ffffffffffffffff811115614500576144ff613bd1565b5b61450c8582860161449d565b925050602061451d85828601613c55565b9150509250929050565b6000806000606084860312156145405761453f613bcc565b5b600061454e86828701613c55565b935050602061455f86828701613c55565b925050604061457086828701613c55565b9150509250925092565b60008060006060848603121561459357614592613bcc565b5b60006145a186828701613c55565b935050602084013567ffffffffffffffff8111156145c2576145c1613bd1565b5b6145ce8682870161449d565b92505060406145df86828701613c55565b9150509250925092565b6145f281613d59565b81146145fd57600080fd5b50565b60008135905061460f816145e9565b92915050565b6000806040838503121561462c5761462b613bcc565b5b600061463a85828601613c1f565b925050602061464b85828601614600565b9150509250929050565b7f4e487b7100000000000000000000000000000000000000000000000000000000600052602160045260246000fd5b6002811061469557614694614655565b5b50565b60008190506146a682614684565b919050565b60006146b682614698565b9050919050565b6146c6816146ab565b82525050565b60006060820190506146e160008301866146bd565b6146ee6020830185613caa565b6146fb60408301846142c5565b949350505050565b6000806040838503121561471a57614719613bcc565b5b600061472885828601613c1f565b925050602061473985828601613c1f565b9150509250929050565b600080600080600060a0868803121561475f5761475e613bcc565b5b600061476d88828901613c1f565b955050602061477e88828901613c1f565b945050604061478f88828901613c55565b93505060606147a088828901613c55565b925050608086013567ffffffffffffffff8111156147c1576147c0613bd1565b5b6147cd888289016141c8565b9150509295509295909350565b7f455243313135353a2061646472657373207a65726f206973206e6f742061207660008201527f616c6964206f776e657200000000000000000000000000000000000000000000602082015250565b6000614836602a83613dc7565b9150614841826147da565b604082019050919050565b6000602082019050818103600083015261486581614829565b9050919050565b600080fd5b600080fd5b60008151905061488581613c3e565b92915050565b600061489e6148998461442a565b61405e565b9050828152602081018484840111156148ba576148b9614141565b5b6148c5848285613dd8565b509392505050565b600082601f8301126148e2576148e1613ff9565b5b81516148f284826020860161488b565b91505092915050565b6000606082840312156149115761491061486c565b5b61491b606061405e565b9050600061492b84828501614876565b600083015250602082015167ffffffffffffffff81111561494f5761494e614871565b5b61495b848285016148cd565b602083015250604061496f84828501614876565b60408301525092915050565b60006020828403121561499157614990613bcc565b5b600082015167ffffffffffffffff8111156149af576149ae613bd1565b5b6149bb848285016148fb565b91505092915050565b7f4e487b7100000000000000000000000000000000000000000000000000000000600052602260045260246000fd5b60006002820490506001821680614a0b57607f821691505b602082108103614a1e57614a1d6149c4565b5b50919050565b6000604082019050614a396000830185613caa565b614a466020830184613caa565b9392505050565b7f596f752063616e206f6e6c79206163636573732063686172616374657273207960008201527f6f75206f776e0000000000000000000000000000000000000000000000000000602082015250565b6000614aa9602683613dc7565b9150614ab482614a4d565b604082019050919050565b60006020820190508181036000830152614ad881614a9c565b9050919050565b7f596f75206d7573742077697468647261772074686973206974656d206265666f60008201527f726520796f75206368616e676520746865207072696365000000000000000000602082015250565b6000614b3b603783613dc7565b9150614b4682614adf565b604082019050919050565b60006020820190508181036000830152614b6a81614b2e565b9050919050565b7f5468652070726963652063616e6e6f742062652061206e65676174697665207660008201527f616c75652e000000000000000000000000000000000000000000000000000000602082015250565b6000614bcd602583613dc7565b9150614bd882614b71565b604082019050919050565b60006020820190508181036000830152614bfc81614bc0565b9050919050565b7f455243313135353a2063616c6c6572206973206e6f7420746f6b656e206f776e60008201527f6572206f7220617070726f766564000000000000000000000000000000000000602082015250565b6000614c5f602e83613dc7565b9150614c6a82614c03565b604082019050919050565b60006020820190508181036000830152614c8e81614c52565b9050919050565b7f54686973206368617261637465722069736e2774206f6e2073616c6500000000600082015250565b6000614ccb601c83613dc7565b9150614cd682614c95565b602082019050919050565b60006020820190508181036000830152614cfa81614cbe565b9050919050565b7f455243313135353a206163636f756e747320616e6420696473206c656e67746860008201527f206d69736d617463680000000000000000000000000000000000000000000000602082015250565b6000614d5d602983613dc7565b9150614d6882614d01565b604082019050919050565b60006020820190508181036000830152614d8c81614d50565b9050919050565b7f4e487b7100000000000000000000000000000000000000000000000000000000600052603260045260246000fd5b7f4e487b7100000000000000000000000000000000000000000000000000000000600052601160045260246000fd5b6000614dfc82613c34565b91507fffffffffffffffffffffffffffffffffffffffffffffffffffffffffffffffff8203614e2e57614e2d614dc2565b5b600182019050919050565b600060208284031215614e4f57614e4e613bcc565b5b6000614e5d84828501614876565b91505092915050565b7f546869732063686172616374657220697320616c7265616479206f6e2073616c60008201527f6500000000000000000000000000000000000000000000000000000000000000602082015250565b6000614ec2602183613dc7565b9150614ecd82614e66565b604082019050919050565b60006020820190508181036000830152614ef181614eb5565b9050919050565b7f596f7520686176656e277420736574206120707269636520666f72207468652060008201527f6368617261637465720000000000000000000000000000000000000000000000602082015250565b6000614f54602983613dc7565b9150614f5f82614ef8565b604082019050919050565b60006020820190508181036000830152614f8381614f47565b9050919050565b60006040820190508181036000830152614fa48185613e13565b9050614fb36020830184613caa565b9392505050565b7f54686520636861726163746572206973206e6f74206f6e2073616c6500000000600082015250565b6000614ff0601c83613dc7565b9150614ffb82614fba565b602082019050919050565b6000602082019050818103600083015261501f81614fe3565b9050919050565b7f596f752063616e27742062757920796f7572206f776e20436861726374657200600082015250565b600061505c601f83613dc7565b915061506782615026565b602082019050919050565b6000602082019050818103600083015261508b8161504f565b9050919050565b7f496e73756666696369656e742066756e64730000000000000000000000000000600082015250565b60006150c8601283613dc7565b91506150d382615092565b602082019050919050565b600060208201905081810360008301526150f7816150bb565b9050919050565b600060608201905061511360008301866142c5565b61512060208301856142c5565b61512d6040830184613caa565b949350505050565b7f54686520636861726163746572206d757374206f776e2074686520736b696e00600082015250565b600061516b601f83613dc7565b915061517682615135565b602082019050919050565b6000602082019050818103600083015261519a8161515e565b9050919050565b60006151ac82613c34565b91506151b783613c34565b92508282019050808211156151cf576151ce614dc2565b5b92915050565b7f4f776e61626c653a206e6577206f776e657220697320746865207a65726f206160008201527f6464726573730000000000000000000000000000000000000000000000000000602082015250565b6000615231602683613dc7565b915061523c826151d5565b604082019050919050565b6000602082019050818103600083015261526081615224565b9050919050565b7f455243313135353a2069647320616e6420616d6f756e7473206c656e6774682060008201527f6d69736d61746368000000000000000000000000000000000000000000000000602082015250565b60006152c3602883613dc7565b91506152ce82615267565b604082019050919050565b600060208201905081810360008301526152f2816152b6565b9050919050565b7f455243313135353a207472616e7366657220746f20746865207a65726f20616460008201527f6472657373000000000000000000000000000000000000000000000000000000602082015250565b6000615355602583613dc7565b9150615360826152f9565b604082019050919050565b6000602082019050818103600083015261538481615348565b9050919050565b7f455243313135353a20696e73756666696369656e742062616c616e636520666f60008201527f72207472616e7366657200000000000000000000000000000000000000000000602082015250565b60006153e7602a83613dc7565b91506153f28261538b565b604082019050919050565b60006020820190508181036000830152615416816153da565b9050919050565b600060408201905081810360008301526154378185613f79565b9050818103602083015261544b8184613f79565b90509392505050565b7f4f776e61626c653a2063616c6c6572206973206e6f7420746865206f776e6572600082015250565b600061548a602083613dc7565b915061549582615454565b602082019050919050565b600060208201905081810360008301526154b98161547d565b9050919050565b60006154cb82613c34565b91506154d683613c34565b92508282039050818111156154ee576154ed614dc2565b5b92915050565b7f4e487b7100000000000000000000000000000000000000000000000000000000600052603160045260246000fd5b7f455243313135353a206275726e2066726f6d20746865207a65726f206164647260008201527f6573730000000000000000000000000000000000000000000000000000000000602082015250565b600061557f602383613dc7565b915061558a82615523565b604082019050919050565b600060208201905081810360008301526155ae81615572565b9050919050565b7f455243313135353a206275726e20616d6f756e7420657863656564732062616c60008201527f616e636500000000000000000000000000000000000000000000000000000000602082015250565b6000615611602483613dc7565b915061561c826155b5565b604082019050919050565b6000602082019050818103600083015261564081615604565b9050919050565b7f455243313135353a206d696e7420746f20746865207a65726f2061646472657360008201527f7300000000000000000000000000000000000000000000000000000000000000602082015250565b60006156a3602183613dc7565b91506156ae82615647565b604082019050919050565b600060208201905081810360008301526156d281615696565b9050919050565b7f455243313135353a2073657474696e6720617070726f76616c2073746174757360008201527f20666f722073656c660000000000000000000000000000000000000000000000602082015250565b6000615735602983613dc7565b9150615740826156d9565b604082019050919050565b6000602082019050818103600083015261576481615728565b9050919050565b600081519050919050565b600082825260208201905092915050565b60006157928261576b565b61579c8185615776565b93506157ac818560208601613dd8565b6157b581613e02565b840191505092915050565b600060a0820190506157d560008301886142c5565b6157e260208301876142c5565b81810360408301526157f48186613f79565b905081810360608301526158088185613f79565b9050818103608083015261581c8184615787565b90509695505050505050565b60008151905061583781613d00565b92915050565b60006020828403121561585357615852613bcc565b5b600061586184828501615828565b91505092915050565b60008160e01c9050919050565b600060033d11156158965760046000803e61589360005161586a565b90505b90565b600060443d10615926576158ab613bc2565b60043d036004823e80513d602482011167ffffffffffffffff821117156158d3575050615926565b808201805167ffffffffffffffff8111156158f15750505050615926565b80602083010160043d03850181111561590e575050505050615926565b61591d8260200185018661402d565b82955050505050505b90565b7f455243313135353a207472616e7366657220746f206e6f6e2d4552433131353560008201527f526563656976657220696d706c656d656e746572000000000000000000000000602082015250565b6000615985603483613dc7565b915061599082615929565b604082019050919050565b600060208201905081810360008301526159b481615978565b9050919050565b7f455243313135353a204552433131353552656365697665722072656a6563746560008201527f6420746f6b656e73000000000000000000000000000000000000000000000000602082015250565b6000615a17602883613dc7565b9150615a22826159bb565b604082019050919050565b60006020820190508181036000830152615a4681615a0a565b9050919050565b600060a082019050615a6260008301886142c5565b615a6f60208301876142c5565b615a7c6040830186613caa565b615a896060830185613caa565b8181036080830152615a9b8184615787565b9050969550505050505056fea2646970667358221220be69a3ade868853de682048d5009a49bb0ddbd06422c6b1dd325567e4a67358b64736f6c63430008130033",
  "immutableReferences": {},
  "source": "// SPDX-License-Identifier: MIT\r\npragma solidity ^0.8.19;\r\n\r\nimport \"@openzeppelin/contracts/token/ERC1155/ERC1155.sol\";\r\nimport \"@openzeppelin/contracts/access/Ownable.sol\";\r\nimport \"@openzeppelin/contracts/utils/Strings.sol\";\r\nimport \"./ERC20_token.sol\";\r\nimport \"./ERC721_token.sol\";\r\n\r\ncontract ERC1155_token is ERC1155, Ownable{\r\n    uint256 private _tokenIdCounter;\r\n\r\n    event CharacterRegistered(uint256 indexed tokenId);\r\n    event SkinRegistered(uint256 indexed tokenId);\r\n\r\n    ERC20_token private IECOToken;\r\n    ERC721_token private skinToken;\r\n\r\n    address public GameMaster;\r\n\r\n    //If Character is on sale or not\r\n    enum CharacterStatus {\r\n        OnSale,\r\n        NotOnSale  \r\n    }\r\n\r\n    struct char {\r\n        CharacterStatus _characterStatus;\r\n        uint256 price;\r\n        uint256[] SkinList;\r\n        address characterOwner;\r\n    }\r\n\r\n    mapping(uint256 => char) public _characters;\r\n\r\n    //check if Character is owned by the sender\r\n    modifier OnlyOwnerOfCharacter(uint256 CharacterId)\r\n    {require(balanceOf(msg.sender, CharacterId) == 1, \"You can only access characters you own\");\r\n        _;\r\n    }\r\n   \r\n    //check if the character owns the skin\r\n    modifier CharacterOwnSkinNFT(uint256 CharacterId, uint256 SkinTokenId)\r\n    {require(isElementInArray(_characters[CharacterId].SkinList, SkinTokenId), \"The character must own the skin\");\r\n        _;\r\n    }\r\n\r\n    constructor(address _IECO, address _SkinNFT) Ownable() ERC1155(\"Character\") {\r\n        skinToken = ERC721_token(_SkinNFT);\r\n        IECOToken = ERC20_token(_IECO);\r\n        GameMaster = msg.sender;\r\n    }\r\n\r\n    //mint in-game gold(ERC 20) to a user\r\n    function GiveGold_to_User(address _to) public {\r\n       IECOToken.giveGold(_to);\r\n    }\r\n\r\n    //register new in-game item\r\n    function RegisterItem(string memory _name, uint256 _price) public {\r\n        IECOToken.registerNewItem(_name, _price);\r\n    }\r\n\r\n    //to purchase in-game item\r\n    function PurchaseItem(uint256 _id) public {\r\n        IECOToken.purchaseGeneralItem(_id);\r\n    }\r\n\r\n    //display in-game item information\r\n    function displayItems(uint256 _id) public view returns (uint256, string memory, uint256) {\r\n        ERC20_token.GItem memory gitem = IECOToken.displayItems(_id);\r\n        return (gitem.itemId, gitem.itemName, gitem.itemPrice);\r\n    }\r\n\r\n    //mint a new character (ERC 1155)\r\n    function registerCharacter() public returns (uint256){\r\n        uint256 tokenId = _tokenIdCounter;\r\n        _mint(msg.sender, tokenId, 1, \"\");\r\n        \r\n        //_characterStatus[tokenId] = CharacterStatus.NotOnSale;\r\n        //characterPrice[tokenId] = 0;\r\n        //characterSkinList[tokenId] = new uint[](0);\r\n        //characterOwner[tokenId] = msg.sender;\r\n\r\n        _characters[tokenId] = char({\r\n            _characterStatus: CharacterStatus.NotOnSale,\r\n            price: 0,\r\n            SkinList: new uint256[](0),\r\n            characterOwner: msg.sender\r\n        });\r\n\r\n        _tokenIdCounter += 1;\r\n\r\n        emit CharacterRegistered(tokenId);\r\n        return tokenId;\r\n    }\r\n\r\n    //Only the gamemaster can unregister a character\r\n    function unregisterCharacter(address owner, uint256 CharacterId) public onlyOwner{\r\n        _burn(owner, CharacterId, 1);\r\n    }\r\n\r\n    //search skin price\r\n    function searchSkinPrice(uint256 SkinId) public view returns (uint256){\r\n        return skinToken.SearchSkin(SkinId);\r\n    } \r\n\r\n    //buy a skin NFT and assign ownership to the character\r\n    function buyCharacterSkinNFT(uint256 CharacterId, uint256 SkinTokenId) public OnlyOwnerOfCharacter(CharacterId){\r\n        skinToken.buyNFTItem(SkinTokenId);\r\n        _characters[CharacterId].SkinList.push(SkinTokenId);\r\n    }\r\n\r\n    function buyNFT(uint256 SkinTokenId) public{\r\n        skinToken.buyNFTItem(SkinTokenId);\r\n    }\r\n\r\n    //remove an element from the list\r\n    function removeElement(uint256[] storage myArray, uint256 element) internal {\r\n        for (uint i = 0; i < myArray.length; i++) {\r\n            if (myArray[i] == element) {\r\n                if (i < myArray.length - 1) {\r\n                    myArray[i] = myArray[myArray.length - 1];\r\n                }\r\n                myArray.pop();\r\n                return;\r\n            }\r\n        }\r\n    }\r\n\r\n    //check if an element is in the list\r\n    function isElementInArray(uint256[] storage myArray, uint256 element) internal view returns (bool) {\r\n        for (uint i = 0; i < myArray.length; i++) {\r\n            if (myArray[i] == element) {\r\n                return true;\r\n            }\r\n        }\r\n        return false;\r\n    }\r\n\r\n    //Display a NFT to sell only if the character is owned by the sender and the character owns the NFT\r\n    function DisplaySkinNFTForSale(uint256 CharacterId, uint256 SkinTokenId) public OnlyOwnerOfCharacter(CharacterId) CharacterOwnSkinNFT(CharacterId, SkinTokenId){\r\n        skinToken.DisplayItem(SkinTokenId);\r\n        removeElement(_characters[CharacterId].SkinList, SkinTokenId);\r\n    }\r\n   \r\n    //Withdraw a NFT to cancel selling only if the character is owned by the sender and the character owns the NFT\r\n    function UndisplaySkinNFTForSale(uint256 CharacterId, uint256 SkinTokenId) public OnlyOwnerOfCharacter(CharacterId) CharacterOwnSkinNFT(CharacterId, SkinTokenId){\r\n        skinToken.UndisplayItem(SkinTokenId);\r\n        _characters[CharacterId].SkinList.push(SkinTokenId);\r\n    }\r\n\r\n    //Change a price for the NFT\r\n    function changeNFTPrice(uint256 SkinTokenId, uint256 price) public{\r\n        skinToken.changeTokenPrice(SkinTokenId, price);\r\n    }\r\n\r\n    //Mint a new NFT that is owned by the character\r\n    function mintSkinNFT(uint256 CharacterId, string memory tokenURI, uint256 price) public returns (uint256){\r\n        uint256 SkinTokenId = skinToken.mintNFT(tokenURI, price);\r\n        _characters[CharacterId].SkinList.push(SkinTokenId);\r\n        return SkinTokenId;\r\n    }\r\n\r\n    //Search a character price\r\n    function searchCharacter(uint256 CharacterId) public view returns (uint256){\r\n        require(_characters[CharacterId]._characterStatus == CharacterStatus.OnSale, \"The character is not on sale\");\r\n        return _characters[CharacterId].price;\r\n    }\r\n\r\n    //Buy a character with all skins that the character owns\r\n    function buyCharacter(uint256 CharacterId) public payable {\r\n        require(_characters[CharacterId]._characterStatus == CharacterStatus.OnSale, \"The character is not on sale\");\r\n        require(balanceOf(msg.sender, CharacterId) == 0, \"You can't buy your own Charcter\");\r\n        require(msg.value >= _characters[CharacterId].price, \"Insufficient funds\");\r\n        address owner = _characters[CharacterId].characterOwner;\r\n        safeTransferFrom(owner, msg.sender, CharacterId, 1, \"\");\r\n        payable(owner).transfer(msg.value);\r\n        _characters[CharacterId].characterOwner = msg.sender;\r\n        _characters[CharacterId]._characterStatus = CharacterStatus.NotOnSale;\r\n        for (uint i = 0; i < _characters[CharacterId].SkinList.length; i++) {\r\n            skinToken.safeTransferFrom(owner, msg.sender, _characters[CharacterId].SkinList[i]);\r\n        }\r\n    }\r\n\r\n    function set(address buyer) public {\r\n        setApprovalForAll(buyer, true);\r\n    }\r\n\r\n    function setup(address buyer) public {\r\n        skinToken.setup(buyer);\r\n    }\r\n\r\n    //Change the price for the character\r\n    function changeCharacterPrice(uint256 CharacterId, uint256 price) public OnlyOwnerOfCharacter(CharacterId){\r\n        require(_characters[CharacterId]._characterStatus == CharacterStatus.NotOnSale, \"You must withdraw this item before you change the price\");\r\n        require(price > 0, \"The price cannot be a negative value.\");\r\n        _characters[CharacterId].price = price;\r\n    }\r\n\r\n    //Display the character to sell only if the sender owns\r\n    function DisplayCharacterForSale(uint256 CharacterId) public OnlyOwnerOfCharacter(CharacterId){\r\n        require(_characters[CharacterId]._characterStatus != CharacterStatus.OnSale, \"This character is already on sale\");\r\n        require(_characters[CharacterId].price > 0, \"You haven't set a price for the character\");\r\n        _characters[CharacterId]._characterStatus = CharacterStatus.OnSale;\r\n    }\r\n\r\n    //Withdraw the character to cancel selling\r\n    function UndisplayCharacter(uint256 CharacterId) public OnlyOwnerOfCharacter(CharacterId){\r\n        require(_characters[CharacterId]._characterStatus != CharacterStatus.NotOnSale, \"This character isn't on sale\");\r\n        _characters[CharacterId]._characterStatus = CharacterStatus.NotOnSale;\r\n    }\r\n\r\n    //Transfer NFT between characters owned by the sender.\r\n    function TransferNFTBetweenCharacters(uint256 From, uint256 To, uint256 NFT) public\r\n    OnlyOwnerOfCharacter(From) OnlyOwnerOfCharacter(To) CharacterOwnSkinNFT(From, NFT){\r\n        _characters[To].SkinList.push(NFT);\r\n        removeElement(_characters[From].SkinList, NFT);\r\n    }\r\n\r\n    //Show all skins that the character owns\r\n    function ShowAllSkinsOwnedByCharacter(uint256 CharacterId) public view returns (uint256[] memory) {\r\n        return _characters[CharacterId].SkinList;\r\n    }\r\n\r\n    function mintNFT(string memory tokenURI, uint256 price) public returns (uint256){\r\n        uint256 tokenId = skinToken.mintNFT(tokenURI, price);\r\n        emit SkinRegistered(tokenId);\r\n        return tokenId;\r\n    }\r\n\r\n    function buyNFTItem(uint256 tokenId) public payable {\r\n        skinToken.buyNFTItem(tokenId);\r\n    }\r\n\r\n    function changeTokenPrice(uint256 tokenId, uint256 price) public {\r\n        skinToken.changeTokenPrice(tokenId, price);\r\n    }\r\n\r\n    function DisplayItem(uint256 tokenId) public {\r\n        skinToken.DisplayItem(tokenId);\r\n    }\r\n\r\n    function UndisplayItem(uint256 tokenId) public {\r\n        skinToken.UndisplayItem(tokenId);\r\n    }\r\n\r\n    //check GameMaster\r\n    function IsGameMaster() public view returns (bool) {\r\n        if (msg.sender == GameMaster){\r\n            return true;\r\n        } else {\r\n            return false;\r\n        }\r\n    }\r\n}",
  "sourcePath": "C:\\Users\\Jaehyun\\cse426\\CSE426-Project\\contract\\contracts\\ERC1155_token.sol",
  "compiler": {
    "name": "solc",
    "version": "0.8.19+commit.7dd6d404.Emscripten.clang"
  },
  "schemaVersion": "3.4.16",
  "updatedAt": "2023-12-03T04:54:52.472Z",
  "networkType": "ethereum",
  "devdoc": {
    "events": {
      "ApprovalForAll(address,address,bool)": {
        "details": "Emitted when `account` grants or revokes permission to `operator` to transfer their tokens, according to `approved`."
      },
      "TransferBatch(address,address,address,uint256[],uint256[])": {
        "details": "Equivalent to multiple {TransferSingle} events, where `operator`, `from` and `to` are the same for all transfers."
      },
      "TransferSingle(address,address,address,uint256,uint256)": {
        "details": "Emitted when `value` tokens of token type `id` are transferred from `from` to `to` by `operator`."
      },
      "URI(string,uint256)": {
        "details": "Emitted when the URI for token type `id` changes to `value`, if it is a non-programmatic URI. If an {URI} event was emitted for `id`, the standard https://eips.ethereum.org/EIPS/eip-1155#metadata-extensions[guarantees] that `value` will equal the value returned by {IERC1155MetadataURI-uri}."
      }
    },
    "kind": "dev",
    "methods": {
      "balanceOf(address,uint256)": {
        "details": "See {IERC1155-balanceOf}. Requirements: - `account` cannot be the zero address."
      },
      "balanceOfBatch(address[],uint256[])": {
        "details": "See {IERC1155-balanceOfBatch}. Requirements: - `accounts` and `ids` must have the same length."
      },
      "isApprovedForAll(address,address)": {
        "details": "See {IERC1155-isApprovedForAll}."
      },
      "owner()": {
        "details": "Returns the address of the current owner."
      },
      "renounceOwnership()": {
        "details": "Leaves the contract without owner. It will not be possible to call `onlyOwner` functions. Can only be called by the current owner. NOTE: Renouncing ownership will leave the contract without an owner, thereby disabling any functionality that is only available to the owner."
      },
      "safeBatchTransferFrom(address,address,uint256[],uint256[],bytes)": {
        "details": "See {IERC1155-safeBatchTransferFrom}."
      },
      "safeTransferFrom(address,address,uint256,uint256,bytes)": {
        "details": "See {IERC1155-safeTransferFrom}."
      },
      "setApprovalForAll(address,bool)": {
        "details": "See {IERC1155-setApprovalForAll}."
      },
      "supportsInterface(bytes4)": {
        "details": "See {IERC165-supportsInterface}."
      },
      "transferOwnership(address)": {
        "details": "Transfers ownership of the contract to a new account (`newOwner`). Can only be called by the current owner."
      },
      "uri(uint256)": {
        "details": "See {IERC1155MetadataURI-uri}. This implementation returns the same URI for *all* token types. It relies on the token type ID substitution mechanism https://eips.ethereum.org/EIPS/eip-1155#metadata[defined in the EIP]. Clients calling this function must replace the `\\{id\\}` substring with the actual token type ID."
      }
    },
    "version": 1
  },
  "userdoc": {
    "kind": "user",
    "methods": {},
    "version": 1
  }
}