{
  "contractName": "ERC721_token",
  "abi": [
    {
      "inputs": [],
      "stateMutability": "nonpayable",
      "type": "constructor"
    },
    {
      "anonymous": false,
      "inputs": [
        {
          "indexed": true,
          "internalType": "address",
          "name": "owner",
          "type": "address"
        },
        {
          "indexed": true,
          "internalType": "address",
          "name": "approved",
          "type": "address"
        },
        {
          "indexed": true,
          "internalType": "uint256",
          "name": "tokenId",
          "type": "uint256"
        }
      ],
      "name": "Approval",
      "type": "event"
    },
    {
      "anonymous": false,
      "inputs": [
        {
          "indexed": true,
          "internalType": "address",
          "name": "owner",
          "type": "address"
        },
        {
          "indexed": true,
          "internalType": "address",
          "name": "operator",
          "type": "address"
        },
        {
          "indexed": false,
          "internalType": "bool",
          "name": "approved",
          "type": "bool"
        }
      ],
      "name": "ApprovalForAll",
      "type": "event"
    },
    {
      "anonymous": false,
      "inputs": [
        {
          "indexed": false,
          "internalType": "uint256",
          "name": "_fromTokenId",
          "type": "uint256"
        },
        {
          "indexed": false,
          "internalType": "uint256",
          "name": "_toTokenId",
          "type": "uint256"
        }
      ],
      "name": "BatchMetadataUpdate",
      "type": "event"
    },
    {
      "anonymous": false,
      "inputs": [
        {
          "indexed": false,
          "internalType": "uint256",
          "name": "_tokenId",
          "type": "uint256"
        }
      ],
      "name": "MetadataUpdate",
      "type": "event"
    },
    {
      "anonymous": false,
      "inputs": [
        {
          "indexed": true,
          "internalType": "address",
          "name": "previousOwner",
          "type": "address"
        },
        {
          "indexed": true,
          "internalType": "address",
          "name": "newOwner",
          "type": "address"
        }
      ],
      "name": "OwnershipTransferred",
      "type": "event"
    },
    {
      "anonymous": false,
      "inputs": [
        {
          "indexed": true,
          "internalType": "address",
          "name": "from",
          "type": "address"
        },
        {
          "indexed": true,
          "internalType": "address",
          "name": "to",
          "type": "address"
        },
        {
          "indexed": true,
          "internalType": "uint256",
          "name": "tokenId",
          "type": "uint256"
        }
      ],
      "name": "Transfer",
      "type": "event"
    },
    {
      "inputs": [
        {
          "internalType": "uint256",
          "name": "",
          "type": "uint256"
        }
      ],
      "name": "_skin",
      "outputs": [
        {
          "internalType": "uint256",
          "name": "tokenPrice",
          "type": "uint256"
        },
        {
          "internalType": "enum ERC721_token.ItemStatus",
          "name": "_itemstatus",
          "type": "uint8"
        }
      ],
      "stateMutability": "view",
      "type": "function",
      "constant": true
    },
    {
      "inputs": [
        {
          "internalType": "address",
          "name": "to",
          "type": "address"
        },
        {
          "internalType": "uint256",
          "name": "tokenId",
          "type": "uint256"
        }
      ],
      "name": "approve",
      "outputs": [],
      "stateMutability": "nonpayable",
      "type": "function"
    },
    {
      "inputs": [
        {
          "internalType": "address",
          "name": "owner",
          "type": "address"
        }
      ],
      "name": "balanceOf",
      "outputs": [
        {
          "internalType": "uint256",
          "name": "",
          "type": "uint256"
        }
      ],
      "stateMutability": "view",
      "type": "function",
      "constant": true
    },
    {
      "inputs": [
        {
          "internalType": "uint256",
          "name": "tokenId",
          "type": "uint256"
        }
      ],
      "name": "getApproved",
      "outputs": [
        {
          "internalType": "address",
          "name": "",
          "type": "address"
        }
      ],
      "stateMutability": "view",
      "type": "function",
      "constant": true
    },
    {
      "inputs": [
        {
          "internalType": "address",
          "name": "owner",
          "type": "address"
        },
        {
          "internalType": "address",
          "name": "operator",
          "type": "address"
        }
      ],
      "name": "isApprovedForAll",
      "outputs": [
        {
          "internalType": "bool",
          "name": "",
          "type": "bool"
        }
      ],
      "stateMutability": "view",
      "type": "function",
      "constant": true
    },
    {
      "inputs": [],
      "name": "name",
      "outputs": [
        {
          "internalType": "string",
          "name": "",
          "type": "string"
        }
      ],
      "stateMutability": "view",
      "type": "function",
      "constant": true
    },
    {
      "inputs": [],
      "name": "owner",
      "outputs": [
        {
          "internalType": "address",
          "name": "",
          "type": "address"
        }
      ],
      "stateMutability": "view",
      "type": "function",
      "constant": true
    },
    {
      "inputs": [
        {
          "internalType": "uint256",
          "name": "tokenId",
          "type": "uint256"
        }
      ],
      "name": "ownerOf",
      "outputs": [
        {
          "internalType": "address",
          "name": "",
          "type": "address"
        }
      ],
      "stateMutability": "view",
      "type": "function",
      "constant": true
    },
    {
      "inputs": [],
      "name": "renounceOwnership",
      "outputs": [],
      "stateMutability": "nonpayable",
      "type": "function"
    },
    {
      "inputs": [
        {
          "internalType": "address",
          "name": "from",
          "type": "address"
        },
        {
          "internalType": "address",
          "name": "to",
          "type": "address"
        },
        {
          "internalType": "uint256",
          "name": "tokenId",
          "type": "uint256"
        }
      ],
      "name": "safeTransferFrom",
      "outputs": [],
      "stateMutability": "nonpayable",
      "type": "function"
    },
    {
      "inputs": [
        {
          "internalType": "address",
          "name": "from",
          "type": "address"
        },
        {
          "internalType": "address",
          "name": "to",
          "type": "address"
        },
        {
          "internalType": "uint256",
          "name": "tokenId",
          "type": "uint256"
        },
        {
          "internalType": "bytes",
          "name": "data",
          "type": "bytes"
        }
      ],
      "name": "safeTransferFrom",
      "outputs": [],
      "stateMutability": "nonpayable",
      "type": "function"
    },
    {
      "inputs": [
        {
          "internalType": "address",
          "name": "operator",
          "type": "address"
        },
        {
          "internalType": "bool",
          "name": "approved",
          "type": "bool"
        }
      ],
      "name": "setApprovalForAll",
      "outputs": [],
      "stateMutability": "nonpayable",
      "type": "function"
    },
    {
      "inputs": [
        {
          "internalType": "bytes4",
          "name": "interfaceId",
          "type": "bytes4"
        }
      ],
      "name": "supportsInterface",
      "outputs": [
        {
          "internalType": "bool",
          "name": "",
          "type": "bool"
        }
      ],
      "stateMutability": "view",
      "type": "function",
      "constant": true
    },
    {
      "inputs": [],
      "name": "symbol",
      "outputs": [
        {
          "internalType": "string",
          "name": "",
          "type": "string"
        }
      ],
      "stateMutability": "view",
      "type": "function",
      "constant": true
    },
    {
      "inputs": [
        {
          "internalType": "uint256",
          "name": "tokenId",
          "type": "uint256"
        }
      ],
      "name": "tokenURI",
      "outputs": [
        {
          "internalType": "string",
          "name": "",
          "type": "string"
        }
      ],
      "stateMutability": "view",
      "type": "function",
      "constant": true
    },
    {
      "inputs": [
        {
          "internalType": "address",
          "name": "from",
          "type": "address"
        },
        {
          "internalType": "address",
          "name": "to",
          "type": "address"
        },
        {
          "internalType": "uint256",
          "name": "tokenId",
          "type": "uint256"
        }
      ],
      "name": "transferFrom",
      "outputs": [],
      "stateMutability": "nonpayable",
      "type": "function"
    },
    {
      "inputs": [
        {
          "internalType": "address",
          "name": "newOwner",
          "type": "address"
        }
      ],
      "name": "transferOwnership",
      "outputs": [],
      "stateMutability": "nonpayable",
      "type": "function"
    },
    {
      "inputs": [
        {
          "internalType": "string",
          "name": "tokenURI",
          "type": "string"
        },
        {
          "internalType": "uint256",
          "name": "price",
          "type": "uint256"
        }
      ],
      "name": "mintNFT",
      "outputs": [
        {
          "internalType": "uint256",
          "name": "",
          "type": "uint256"
        }
      ],
      "stateMutability": "nonpayable",
      "type": "function"
    },
    {
      "inputs": [
        {
          "internalType": "uint256",
          "name": "tokenId",
          "type": "uint256"
        },
        {
          "internalType": "uint256",
          "name": "price",
          "type": "uint256"
        }
      ],
      "name": "changeTokenPrice",
      "outputs": [],
      "stateMutability": "nonpayable",
      "type": "function"
    },
    {
      "inputs": [
        {
          "internalType": "uint256",
          "name": "tokenId",
          "type": "uint256"
        }
      ],
      "name": "buyNFTItem",
      "outputs": [],
      "stateMutability": "payable",
      "type": "function",
      "payable": true
    },
    {
      "inputs": [
        {
          "internalType": "address",
          "name": "buyer",
          "type": "address"
        }
      ],
      "name": "setup",
      "outputs": [],
      "stateMutability": "nonpayable",
      "type": "function"
    },
    {
      "inputs": [
        {
          "internalType": "uint256",
          "name": "tokenId",
          "type": "uint256"
        }
      ],
      "name": "DisplayItem",
      "outputs": [],
      "stateMutability": "nonpayable",
      "type": "function"
    },
    {
      "inputs": [
        {
          "internalType": "uint256",
          "name": "tokenId",
          "type": "uint256"
        }
      ],
      "name": "UndisplayItem",
      "outputs": [],
      "stateMutability": "nonpayable",
      "type": "function"
    },
    {
      "inputs": [
        {
          "internalType": "uint256",
          "name": "tokenId",
          "type": "uint256"
        }
      ],
      "name": "SearchSkin",
      "outputs": [
        {
          "internalType": "uint256",
          "name": "",
          "type": "uint256"
        }
      ],
      "stateMutability": "view",
      "type": "function",
      "constant": true
    }
  ],
  "bytecode": "0x60806040523480156200001157600080fd5b506040518060400160405280600481526020017f536b696e000000000000000000000000000000000000000000000000000000008152506040518060400160405280600381526020017f534b4e000000000000000000000000000000000000000000000000000000000081525081600090816200008f919062000412565b508060019081620000a1919062000412565b505050620000c4620000b8620000ca60201b60201c565b620000d260201b60201c565b620004f9565b600033905090565b6000600760009054906101000a900473ffffffffffffffffffffffffffffffffffffffff16905081600760006101000a81548173ffffffffffffffffffffffffffffffffffffffff021916908373ffffffffffffffffffffffffffffffffffffffff1602179055508173ffffffffffffffffffffffffffffffffffffffff168173ffffffffffffffffffffffffffffffffffffffff167f8be0079c531659141344cd1fd0a4f28419497f9722a3daafe3b4186f6b6457e060405160405180910390a35050565b600081519050919050565b7f4e487b7100000000000000000000000000000000000000000000000000000000600052604160045260246000fd5b7f4e487b7100000000000000000000000000000000000000000000000000000000600052602260045260246000fd5b600060028204905060018216806200021a57607f821691505b60208210810362000230576200022f620001d2565b5b50919050565b60008190508160005260206000209050919050565b60006020601f8301049050919050565b600082821b905092915050565b6000600883026200029a7fffffffffffffffffffffffffffffffffffffffffffffffffffffffffffffffff826200025b565b620002a686836200025b565b95508019841693508086168417925050509392505050565b6000819050919050565b6000819050919050565b6000620002f3620002ed620002e784620002be565b620002c8565b620002be565b9050919050565b6000819050919050565b6200030f83620002d2565b620003276200031e82620002fa565b84845462000268565b825550505050565b600090565b6200033e6200032f565b6200034b81848462000304565b505050565b5b8181101562000373576200036760008262000334565b60018101905062000351565b5050565b601f821115620003c2576200038c8162000236565b62000397846200024b565b81016020851015620003a7578190505b620003bf620003b6856200024b565b83018262000350565b50505b505050565b600082821c905092915050565b6000620003e760001984600802620003c7565b1980831691505092915050565b6000620004028383620003d4565b9150826002028217905092915050565b6200041d8262000198565b67ffffffffffffffff811115620004395762000438620001a3565b5b62000445825462000201565b6200045282828562000377565b600060209050601f8311600181146200048a576000841562000475578287015190505b620004818582620003f4565b865550620004f1565b601f1984166200049a8662000236565b60005b82811015620004c4578489015182556001820191506020850194506020810190506200049d565b86831015620004e45784890151620004e0601f891682620003d4565b8355505b6001600288020188555050505b505050505050565b613df880620005096000396000f3fe60806040526004361061014b5760003560e01c8063715018a6116100b6578063b88d4fde1161006f578063b88d4fde146104a6578063c87b56dd146104cf578063e5e1529a1461050c578063e985e9c514610535578063eb33574b14610572578063f2fde38b1461059b5761014b565b8063715018a6146103b757806388c09e43146103ce5780638da5cb5b146103ea57806395d89b41146104155780639b1122b014610440578063a22cb4651461047d5761014b565b80635afa3a72116101085780635afa3a721461027057806362e8e8ac146102ad5780636352211e146102d657806366d382031461031357806370a082311461033c57806370d937ab146103795761014b565b806301ffc9a71461015057806306fdde031461018d578063081812fc146101b8578063095ea7b3146101f557806323b872dd1461021e57806342842e0e14610247575b600080fd5b34801561015c57600080fd5b50610177600480360381019061017291906125f6565b6105c4565b604051610184919061263e565b60405180910390f35b34801561019957600080fd5b506101a2610625565b6040516101af91906126e9565b60405180910390f35b3480156101c457600080fd5b506101df60048036038101906101da9190612741565b6106b7565b6040516101ec91906127af565b60405180910390f35b34801561020157600080fd5b5061021c600480360381019061021791906127f6565b6106fd565b005b34801561022a57600080fd5b5061024560048036038101906102409190612836565b610814565b005b34801561025357600080fd5b5061026e60048036038101906102699190612836565b610874565b005b34801561027c57600080fd5b50610297600480360381019061029291906129be565b610894565b6040516102a49190612a29565b60405180910390f35b3480156102b957600080fd5b506102d460048036038101906102cf9190612a44565b61098e565b005b3480156102e257600080fd5b506102fd60048036038101906102f89190612741565b610aef565b60405161030a91906127af565b60405180910390f35b34801561031f57600080fd5b5061033a60048036038101906103359190612a84565b610b75565b005b34801561034857600080fd5b50610363600480360381019061035e9190612a84565b610b83565b6040516103709190612a29565b60405180910390f35b34801561038557600080fd5b506103a0600480360381019061039b9190612741565b610c3a565b6040516103ae929190612b28565b60405180910390f35b3480156103c357600080fd5b506103cc610c6b565b005b6103e860048036038101906103e39190612741565b610c7f565b005b3480156103f657600080fd5b506103ff610e7a565b60405161040c91906127af565b60405180910390f35b34801561042157600080fd5b5061042a610ea4565b60405161043791906126e9565b60405180910390f35b34801561044c57600080fd5b5061046760048036038101906104629190612741565b610f36565b6040516104749190612a29565b60405180910390f35b34801561048957600080fd5b506104a4600480360381019061049f9190612b7d565b610fdf565b005b3480156104b257600080fd5b506104cd60048036038101906104c89190612c5e565b610ff5565b005b3480156104db57600080fd5b506104f660048036038101906104f19190612741565b611057565b60405161050391906126e9565b60405180910390f35b34801561051857600080fd5b50610533600480360381019061052e9190612741565b611169565b005b34801561054157600080fd5b5061055c60048036038101906105579190612ce1565b6112aa565b604051610569919061263e565b60405180910390f35b34801561057e57600080fd5b5061059960048036038101906105949190612741565b61133e565b005b3480156105a757600080fd5b506105c260048036038101906105bd9190612a84565b611480565b005b6000634906490660e01b7bffffffffffffffffffffffffffffffffffffffffffffffffffffffff1916827bffffffffffffffffffffffffffffffffffffffffffffffffffffffff1916148061061e575061061d82611503565b5b9050919050565b60606000805461063490612d50565b80601f016020809104026020016040519081016040528092919081815260200182805461066090612d50565b80156106ad5780601f10610682576101008083540402835291602001916106ad565b820191906000526020600020905b81548152906001019060200180831161069057829003601f168201915b5050505050905090565b60006106c2826115e5565b6004600083815260200190815260200160002060009054906101000a900473ffffffffffffffffffffffffffffffffffffffff169050919050565b600061070882610aef565b90508073ffffffffffffffffffffffffffffffffffffffff168373ffffffffffffffffffffffffffffffffffffffff1603610778576040517f08c379a000000000000000000000000000000000000000000000000000000000815260040161076f90612df3565b60405180910390fd5b8073ffffffffffffffffffffffffffffffffffffffff16610797611630565b73ffffffffffffffffffffffffffffffffffffffff1614806107c657506107c5816107c0611630565b6112aa565b5b610805576040517f08c379a00000000000000000000000000000000000000000000000000000000081526004016107fc90612e85565b60405180910390fd5b61080f8383611638565b505050565b61082561081f611630565b826116f1565b610864576040517f08c379a000000000000000000000000000000000000000000000000000000000815260040161085b90612f17565b60405180910390fd5b61086f838383611786565b505050565b61088f83838360405180602001604052806000815250610ff5565b505050565b60008082116108d8576040517f08c379a00000000000000000000000000000000000000000000000000000000081526004016108cf90612fa9565b60405180910390fd5b600060085490506108e93382611a7f565b6108f38185611c9c565b604051806040016040528084815260200160018081111561091757610916612ab1565b5b815250600960008381526020019081526020016000206000820151816000015560208201518160010160006101000a81548160ff0219169083600181111561096257610961612ab1565b5b021790555090505060016008600082825461097d9190612ff8565b925050819055508091505092915050565b61099782610aef565b73ffffffffffffffffffffffffffffffffffffffff163373ffffffffffffffffffffffffffffffffffffffff1614610a04576040517f08c379a00000000000000000000000000000000000000000000000000000000081526004016109fb9061309e565b60405180910390fd5b600180811115610a1757610a16612ab1565b5b6009600084815260200190815260200160002060010160009054906101000a900460ff166001811115610a4d57610a4c612ab1565b5b14610a8d576040517f08c379a0000000000000000000000000000000000000000000000000000000008152600401610a8490613130565b60405180910390fd5b60008111610ad0576040517f08c379a0000000000000000000000000000000000000000000000000000000008152600401610ac790612fa9565b60405180910390fd5b8060096000848152602001908152602001600020600001819055505050565b600080610afb83611d40565b9050600073ffffffffffffffffffffffffffffffffffffffff168173ffffffffffffffffffffffffffffffffffffffff1603610b6c576040517f08c379a0000000000000000000000000000000000000000000000000000000008152600401610b639061319c565b60405180910390fd5b80915050919050565b610b80816001610fdf565b50565b60008073ffffffffffffffffffffffffffffffffffffffff168273ffffffffffffffffffffffffffffffffffffffff1603610bf3576040517f08c379a0000000000000000000000000000000000000000000000000000000008152600401610bea9061322e565b60405180910390fd5b600360008373ffffffffffffffffffffffffffffffffffffffff1673ffffffffffffffffffffffffffffffffffffffff168152602001908152602001600020549050919050565b60096020528060005260406000206000915090508060000154908060010160009054906101000a900460ff16905082565b610c73611d7d565b610c7d6000611dfb565b565b3373ffffffffffffffffffffffffffffffffffffffff16610c9f82610aef565b73ffffffffffffffffffffffffffffffffffffffff1603610cf5576040517f08c379a0000000000000000000000000000000000000000000000000000000008152600401610cec9061329a565b60405180910390fd5b6009600082815260200190815260200160002060000154341015610d4e576040517f08c379a0000000000000000000000000000000000000000000000000000000008152600401610d4590613306565b60405180910390fd5b60006001811115610d6257610d61612ab1565b5b6009600083815260200190815260200160002060010160009054906101000a900460ff166001811115610d9857610d97612ab1565b5b14610dd8576040517f08c379a0000000000000000000000000000000000000000000000000000000008152600401610dcf90613372565b60405180910390fd5b6000610de382610aef565b9050610df0813384610874565b8073ffffffffffffffffffffffffffffffffffffffff166108fc349081150290604051600060405180830381858888f19350505050158015610e36573d6000803e3d6000fd5b5060016009600084815260200190815260200160002060010160006101000a81548160ff02191690836001811115610e7157610e70612ab1565b5b02179055505050565b6000600760009054906101000a900473ffffffffffffffffffffffffffffffffffffffff16905090565b606060018054610eb390612d50565b80601f0160208091040260200160405190810160405280929190818152602001828054610edf90612d50565b8015610f2c5780601f10610f0157610100808354040283529160200191610f2c565b820191906000526020600020905b815481529060010190602001808311610f0f57829003601f168201915b5050505050905090565b6000806001811115610f4b57610f4a612ab1565b5b6009600084815260200190815260200160002060010160009054906101000a900460ff166001811115610f8157610f80612ab1565b5b14610fc1576040517f08c379a0000000000000000000000000000000000000000000000000000000008152600401610fb890613404565b60405180910390fd5b60096000838152602001908152602001600020600001549050919050565b610ff1610fea611630565b8383611ec1565b5050565b611006611000611630565b836116f1565b611045576040517f08c379a000000000000000000000000000000000000000000000000000000000815260040161103c90612f17565b60405180910390fd5b6110518484848461202d565b50505050565b6060611062826115e5565b600060066000848152602001908152602001600020805461108290612d50565b80601f01602080910402602001604051908101604052809291908181526020018280546110ae90612d50565b80156110fb5780601f106110d0576101008083540402835291602001916110fb565b820191906000526020600020905b8154815290600101906020018083116110de57829003601f168201915b50505050509050600061110c612089565b90506000815103611121578192505050611164565b60008251111561115657808260405160200161113e929190613460565b60405160208183030381529060405292505050611164565b61115f846120a0565b925050505b919050565b61117281610aef565b73ffffffffffffffffffffffffffffffffffffffff163373ffffffffffffffffffffffffffffffffffffffff16146111df576040517f08c379a00000000000000000000000000000000000000000000000000000000081526004016111d69061309e565b60405180910390fd5b6001808111156111f2576111f1612ab1565b5b6009600083815260200190815260200160002060010160009054906101000a900460ff16600181111561122857611227612ab1565b5b14611268576040517f08c379a000000000000000000000000000000000000000000000000000000000815260040161125f906134f6565b60405180910390fd5b60006009600083815260200190815260200160002060010160006101000a81548160ff021916908360018111156112a2576112a1612ab1565b5b021790555050565b6000600560008473ffffffffffffffffffffffffffffffffffffffff1673ffffffffffffffffffffffffffffffffffffffff16815260200190815260200160002060008373ffffffffffffffffffffffffffffffffffffffff1673ffffffffffffffffffffffffffffffffffffffff16815260200190815260200160002060009054906101000a900460ff16905092915050565b61134781610aef565b73ffffffffffffffffffffffffffffffffffffffff163373ffffffffffffffffffffffffffffffffffffffff16146113b4576040517f08c379a00000000000000000000000000000000000000000000000000000000081526004016113ab9061309e565b60405180910390fd5b600060018111156113c8576113c7612ab1565b5b6009600083815260200190815260200160002060010160009054906101000a900460ff1660018111156113fe576113fd612ab1565b5b1461143e576040517f08c379a000000000000000000000000000000000000000000000000000000000815260040161143590613588565b60405180910390fd5b60016009600083815260200190815260200160002060010160006101000a81548160ff0219169083600181111561147857611477612ab1565b5b021790555050565b611488611d7d565b600073ffffffffffffffffffffffffffffffffffffffff168173ffffffffffffffffffffffffffffffffffffffff16036114f7576040517f08c379a00000000000000000000000000000000000000000000000000000000081526004016114ee9061361a565b60405180910390fd5b61150081611dfb565b50565b60007f80ac58cd000000000000000000000000000000000000000000000000000000007bffffffffffffffffffffffffffffffffffffffffffffffffffffffff1916827bffffffffffffffffffffffffffffffffffffffffffffffffffffffff191614806115ce57507f5b5e139f000000000000000000000000000000000000000000000000000000007bffffffffffffffffffffffffffffffffffffffffffffffffffffffff1916827bffffffffffffffffffffffffffffffffffffffffffffffffffffffff1916145b806115de57506115dd82612108565b5b9050919050565b6115ee81612172565b61162d576040517f08c379a00000000000000000000000000000000000000000000000000000000081526004016116249061319c565b60405180910390fd5b50565b600033905090565b816004600083815260200190815260200160002060006101000a81548173ffffffffffffffffffffffffffffffffffffffff021916908373ffffffffffffffffffffffffffffffffffffffff160217905550808273ffffffffffffffffffffffffffffffffffffffff166116ab83610aef565b73ffffffffffffffffffffffffffffffffffffffff167f8c5be1e5ebec7d5bd14f71427d1e84f3dd0314c0f7b2291e5b200ac8c7c3b92560405160405180910390a45050565b6000806116fd83610aef565b90508073ffffffffffffffffffffffffffffffffffffffff168473ffffffffffffffffffffffffffffffffffffffff16148061173f575061173e81856112aa565b5b8061177d57508373ffffffffffffffffffffffffffffffffffffffff16611765846106b7565b73ffffffffffffffffffffffffffffffffffffffff16145b91505092915050565b8273ffffffffffffffffffffffffffffffffffffffff166117a682610aef565b73ffffffffffffffffffffffffffffffffffffffff16146117fc576040517f08c379a00000000000000000000000000000000000000000000000000000000081526004016117f3906136ac565b60405180910390fd5b600073ffffffffffffffffffffffffffffffffffffffff168273ffffffffffffffffffffffffffffffffffffffff160361186b576040517f08c379a00000000000000000000000000000000000000000000000000000000081526004016118629061373e565b60405180910390fd5b61187883838360016121b3565b8273ffffffffffffffffffffffffffffffffffffffff1661189882610aef565b73ffffffffffffffffffffffffffffffffffffffff16146118ee576040517f08c379a00000000000000000000000000000000000000000000000000000000081526004016118e5906136ac565b60405180910390fd5b6004600082815260200190815260200160002060006101000a81549073ffffffffffffffffffffffffffffffffffffffff02191690556001600360008573ffffffffffffffffffffffffffffffffffffffff1673ffffffffffffffffffffffffffffffffffffffff168152602001908152602001600020600082825403925050819055506001600360008473ffffffffffffffffffffffffffffffffffffffff1673ffffffffffffffffffffffffffffffffffffffff16815260200190815260200160002060008282540192505081905550816002600083815260200190815260200160002060006101000a81548173ffffffffffffffffffffffffffffffffffffffff021916908373ffffffffffffffffffffffffffffffffffffffff160217905550808273ffffffffffffffffffffffffffffffffffffffff168473ffffffffffffffffffffffffffffffffffffffff167fddf252ad1be2c89b69c2b068fc378daa952ba7f163c4a11628f55a4df523b3ef60405160405180910390a4611a7a83838360016121b9565b505050565b600073ffffffffffffffffffffffffffffffffffffffff168273ffffffffffffffffffffffffffffffffffffffff1603611aee576040517f08c379a0000000000000000000000000000000000000000000000000000000008152600401611ae5906137aa565b60405180910390fd5b611af781612172565b15611b37576040517f08c379a0000000000000000000000000000000000000000000000000000000008152600401611b2e90613816565b60405180910390fd5b611b456000838360016121b3565b611b4e81612172565b15611b8e576040517f08c379a0000000000000000000000000000000000000000000000000000000008152600401611b8590613816565b60405180910390fd5b6001600360008473ffffffffffffffffffffffffffffffffffffffff1673ffffffffffffffffffffffffffffffffffffffff16815260200190815260200160002060008282540192505081905550816002600083815260200190815260200160002060006101000a81548173ffffffffffffffffffffffffffffffffffffffff021916908373ffffffffffffffffffffffffffffffffffffffff160217905550808273ffffffffffffffffffffffffffffffffffffffff16600073ffffffffffffffffffffffffffffffffffffffff167fddf252ad1be2c89b69c2b068fc378daa952ba7f163c4a11628f55a4df523b3ef60405160405180910390a4611c986000838360016121b9565b5050565b611ca582612172565b611ce4576040517f08c379a0000000000000000000000000000000000000000000000000000000008152600401611cdb906138a8565b60405180910390fd5b80600660008481526020019081526020016000209081611d049190613a74565b507ff8e1a15aba9398e019f0b49df1a4fde98ee17ae345cb5f6b5e2c27f5033e8ce782604051611d349190612a29565b60405180910390a15050565b60006002600083815260200190815260200160002060009054906101000a900473ffffffffffffffffffffffffffffffffffffffff169050919050565b611d85611630565b73ffffffffffffffffffffffffffffffffffffffff16611da3610e7a565b73ffffffffffffffffffffffffffffffffffffffff1614611df9576040517f08c379a0000000000000000000000000000000000000000000000000000000008152600401611df090613b92565b60405180910390fd5b565b6000600760009054906101000a900473ffffffffffffffffffffffffffffffffffffffff16905081600760006101000a81548173ffffffffffffffffffffffffffffffffffffffff021916908373ffffffffffffffffffffffffffffffffffffffff1602179055508173ffffffffffffffffffffffffffffffffffffffff168173ffffffffffffffffffffffffffffffffffffffff167f8be0079c531659141344cd1fd0a4f28419497f9722a3daafe3b4186f6b6457e060405160405180910390a35050565b8173ffffffffffffffffffffffffffffffffffffffff168373ffffffffffffffffffffffffffffffffffffffff1603611f2f576040517f08c379a0000000000000000000000000000000000000000000000000000000008152600401611f2690613bfe565b60405180910390fd5b80600560008573ffffffffffffffffffffffffffffffffffffffff1673ffffffffffffffffffffffffffffffffffffffff16815260200190815260200160002060008473ffffffffffffffffffffffffffffffffffffffff1673ffffffffffffffffffffffffffffffffffffffff16815260200190815260200160002060006101000a81548160ff0219169083151502179055508173ffffffffffffffffffffffffffffffffffffffff168373ffffffffffffffffffffffffffffffffffffffff167f17307eab39ab6107e8899845ad3d59bd9653f200f220920489ca2b5937696c3183604051612020919061263e565b60405180910390a3505050565b612038848484611786565b612044848484846121bf565b612083576040517f08c379a000000000000000000000000000000000000000000000000000000000815260040161207a90613c90565b60405180910390fd5b50505050565b606060405180602001604052806000815250905090565b60606120ab826115e5565b60006120b5612089565b905060008151116120d55760405180602001604052806000815250612100565b806120df84612346565b6040516020016120f0929190613460565b6040516020818303038152906040525b915050919050565b60007f01ffc9a7000000000000000000000000000000000000000000000000000000007bffffffffffffffffffffffffffffffffffffffffffffffffffffffff1916827bffffffffffffffffffffffffffffffffffffffffffffffffffffffff1916149050919050565b60008073ffffffffffffffffffffffffffffffffffffffff1661219483611d40565b73ffffffffffffffffffffffffffffffffffffffff1614159050919050565b50505050565b50505050565b60006121e08473ffffffffffffffffffffffffffffffffffffffff16612414565b15612339578373ffffffffffffffffffffffffffffffffffffffff1663150b7a02612209611630565b8786866040518563ffffffff1660e01b815260040161222b9493929190613d05565b6020604051808303816000875af192505050801561226757506040513d601f19601f820116820180604052508101906122649190613d66565b60015b6122e9573d8060008114612297576040519150601f19603f3d011682016040523d82523d6000602084013e61229c565b606091505b5060008151036122e1576040517f08c379a00000000000000000000000000000000000000000000000000000000081526004016122d890613c90565b60405180910390fd5b805181602001fd5b63150b7a0260e01b7bffffffffffffffffffffffffffffffffffffffffffffffffffffffff1916817bffffffffffffffffffffffffffffffffffffffffffffffffffffffff19161491505061233e565b600190505b949350505050565b60606000600161235584612437565b01905060008167ffffffffffffffff81111561237457612373612893565b5b6040519080825280601f01601f1916602001820160405280156123a65781602001600182028036833780820191505090505b509050600082602001820190505b600115612409578080600190039150507f3031323334353637383961626364656600000000000000000000000000000000600a86061a8153600a85816123fd576123fc613d93565b5b049450600085036123b4575b819350505050919050565b6000808273ffffffffffffffffffffffffffffffffffffffff163b119050919050565b600080600090507a184f03e93ff9f4daa797ed6e38ed64bf6a1f0100000000000000008310612495577a184f03e93ff9f4daa797ed6e38ed64bf6a1f010000000000000000838161248b5761248a613d93565b5b0492506040810190505b6d04ee2d6d415b85acef810000000083106124d2576d04ee2d6d415b85acef810000000083816124c8576124c7613d93565b5b0492506020810190505b662386f26fc10000831061250157662386f26fc1000083816124f7576124f6613d93565b5b0492506010810190505b6305f5e100831061252a576305f5e10083816125205761251f613d93565b5b0492506008810190505b612710831061254f57612710838161254557612544613d93565b5b0492506004810190505b60648310612572576064838161256857612567613d93565b5b0492506002810190505b600a8310612581576001810190505b80915050919050565b6000604051905090565b600080fd5b600080fd5b60007fffffffff0000000000000000000000000000000000000000000000000000000082169050919050565b6125d38161259e565b81146125de57600080fd5b50565b6000813590506125f0816125ca565b92915050565b60006020828403121561260c5761260b612594565b5b600061261a848285016125e1565b91505092915050565b60008115159050919050565b61263881612623565b82525050565b6000602082019050612653600083018461262f565b92915050565b600081519050919050565b600082825260208201905092915050565b60005b83811015612693578082015181840152602081019050612678565b60008484015250505050565b6000601f19601f8301169050919050565b60006126bb82612659565b6126c58185612664565b93506126d5818560208601612675565b6126de8161269f565b840191505092915050565b6000602082019050818103600083015261270381846126b0565b905092915050565b6000819050919050565b61271e8161270b565b811461272957600080fd5b50565b60008135905061273b81612715565b92915050565b60006020828403121561275757612756612594565b5b60006127658482850161272c565b91505092915050565b600073ffffffffffffffffffffffffffffffffffffffff82169050919050565b60006127998261276e565b9050919050565b6127a98161278e565b82525050565b60006020820190506127c460008301846127a0565b92915050565b6127d38161278e565b81146127de57600080fd5b50565b6000813590506127f0816127ca565b92915050565b6000806040838503121561280d5761280c612594565b5b600061281b858286016127e1565b925050602061282c8582860161272c565b9150509250929050565b60008060006060848603121561284f5761284e612594565b5b600061285d868287016127e1565b935050602061286e868287016127e1565b925050604061287f8682870161272c565b9150509250925092565b600080fd5b600080fd5b7f4e487b7100000000000000000000000000000000000000000000000000000000600052604160045260246000fd5b6128cb8261269f565b810181811067ffffffffffffffff821117156128ea576128e9612893565b5b80604052505050565b60006128fd61258a565b905061290982826128c2565b919050565b600067ffffffffffffffff82111561292957612928612893565b5b6129328261269f565b9050602081019050919050565b82818337600083830152505050565b600061296161295c8461290e565b6128f3565b90508281526020810184848401111561297d5761297c61288e565b5b61298884828561293f565b509392505050565b600082601f8301126129a5576129a4612889565b5b81356129b584826020860161294e565b91505092915050565b600080604083850312156129d5576129d4612594565b5b600083013567ffffffffffffffff8111156129f3576129f2612599565b5b6129ff85828601612990565b9250506020612a108582860161272c565b9150509250929050565b612a238161270b565b82525050565b6000602082019050612a3e6000830184612a1a565b92915050565b60008060408385031215612a5b57612a5a612594565b5b6000612a698582860161272c565b9250506020612a7a8582860161272c565b9150509250929050565b600060208284031215612a9a57612a99612594565b5b6000612aa8848285016127e1565b91505092915050565b7f4e487b7100000000000000000000000000000000000000000000000000000000600052602160045260246000fd5b60028110612af157612af0612ab1565b5b50565b6000819050612b0282612ae0565b919050565b6000612b1282612af4565b9050919050565b612b2281612b07565b82525050565b6000604082019050612b3d6000830185612a1a565b612b4a6020830184612b19565b9392505050565b612b5a81612623565b8114612b6557600080fd5b50565b600081359050612b7781612b51565b92915050565b60008060408385031215612b9457612b93612594565b5b6000612ba2858286016127e1565b9250506020612bb385828601612b68565b9150509250929050565b600067ffffffffffffffff821115612bd857612bd7612893565b5b612be18261269f565b9050602081019050919050565b6000612c01612bfc84612bbd565b6128f3565b905082815260208101848484011115612c1d57612c1c61288e565b5b612c2884828561293f565b509392505050565b600082601f830112612c4557612c44612889565b5b8135612c55848260208601612bee565b91505092915050565b60008060008060808587031215612c7857612c77612594565b5b6000612c86878288016127e1565b9450506020612c97878288016127e1565b9350506040612ca88782880161272c565b925050606085013567ffffffffffffffff811115612cc957612cc8612599565b5b612cd587828801612c30565b91505092959194509250565b60008060408385031215612cf857612cf7612594565b5b6000612d06858286016127e1565b9250506020612d17858286016127e1565b9150509250929050565b7f4e487b7100000000000000000000000000000000000000000000000000000000600052602260045260246000fd5b60006002820490506001821680612d6857607f821691505b602082108103612d7b57612d7a612d21565b5b50919050565b7f4552433732313a20617070726f76616c20746f2063757272656e74206f776e6560008201527f7200000000000000000000000000000000000000000000000000000000000000602082015250565b6000612ddd602183612664565b9150612de882612d81565b604082019050919050565b60006020820190508181036000830152612e0c81612dd0565b9050919050565b7f4552433732313a20617070726f76652063616c6c6572206973206e6f7420746f60008201527f6b656e206f776e6572206f7220617070726f76656420666f7220616c6c000000602082015250565b6000612e6f603d83612664565b9150612e7a82612e13565b604082019050919050565b60006020820190508181036000830152612e9e81612e62565b9050919050565b7f4552433732313a2063616c6c6572206973206e6f7420746f6b656e206f776e6560008201527f72206f7220617070726f76656400000000000000000000000000000000000000602082015250565b6000612f01602d83612664565b9150612f0c82612ea5565b604082019050919050565b60006020820190508181036000830152612f3081612ef4565b9050919050565b7f5468652070726963652063616e6e6f742062652061206e65676174697665207660008201527f616c75652e000000000000000000000000000000000000000000000000000000602082015250565b6000612f93602583612664565b9150612f9e82612f37565b604082019050919050565b60006020820190508181036000830152612fc281612f86565b9050919050565b7f4e487b7100000000000000000000000000000000000000000000000000000000600052601160045260246000fd5b60006130038261270b565b915061300e8361270b565b925082820190508082111561302657613025612fc9565b5b92915050565b7f596f752063616e206f6e6c792061636365737320746f6b656e7320796f75206f60008201527f776e000000000000000000000000000000000000000000000000000000000000602082015250565b6000613088602283612664565b91506130938261302c565b604082019050919050565b600060208201905081810360008301526130b78161307b565b9050919050565b7f596f75206d7573742077697468647261772074686973206974656d206265666f60008201527f726520796f75206368616e676520746865207072696365000000000000000000602082015250565b600061311a603783612664565b9150613125826130be565b604082019050919050565b600060208201905081810360008301526131498161310d565b9050919050565b7f4552433732313a20696e76616c696420746f6b656e2049440000000000000000600082015250565b6000613186601883612664565b915061319182613150565b602082019050919050565b600060208201905081810360008301526131b581613179565b9050919050565b7f4552433732313a2061646472657373207a65726f206973206e6f74206120766160008201527f6c6964206f776e65720000000000000000000000000000000000000000000000602082015250565b6000613218602983612664565b9150613223826131bc565b604082019050919050565b600060208201905081810360008301526132478161320b565b9050919050565b7f596f752063616e27742062757920796f7572206f776e204e4654000000000000600082015250565b6000613284601a83612664565b915061328f8261324e565b602082019050919050565b600060208201905081810360008301526132b381613277565b9050919050565b7f496e73756666696369656e742066756e64730000000000000000000000000000600082015250565b60006132f0601283612664565b91506132fb826132ba565b602082019050919050565b6000602082019050818103600083015261331f816132e3565b9050919050565b7f54686973206974656d206973206e6f7420617661696c61626c65000000000000600082015250565b600061335c601a83612664565b915061336782613326565b602082019050919050565b6000602082019050818103600083015261338b8161334f565b9050919050565b7f54686973206974656d2069736e27742072656769737465726564206f6e20746860008201527f65206d61726b6574000000000000000000000000000000000000000000000000602082015250565b60006133ee602883612664565b91506133f982613392565b604082019050919050565b6000602082019050818103600083015261341d816133e1565b9050919050565b600081905092915050565b600061343a82612659565b6134448185613424565b9350613454818560208601612675565b80840191505092915050565b600061346c828561342f565b9150613478828461342f565b91508190509392505050565b7f54686973206974656d20697320616c7265616479206265696e6720646973706c60008201527f6179656400000000000000000000000000000000000000000000000000000000602082015250565b60006134e0602483612664565b91506134eb82613484565b604082019050919050565b6000602082019050818103600083015261350f816134d3565b9050919050565b7f54686973206974656d2069736e277420616c7265616479206265696e6720646960008201527f73706c6179656400000000000000000000000000000000000000000000000000602082015250565b6000613572602783612664565b915061357d82613516565b604082019050919050565b600060208201905081810360008301526135a181613565565b9050919050565b7f4f776e61626c653a206e6577206f776e657220697320746865207a65726f206160008201527f6464726573730000000000000000000000000000000000000000000000000000602082015250565b6000613604602683612664565b915061360f826135a8565b604082019050919050565b60006020820190508181036000830152613633816135f7565b9050919050565b7f4552433732313a207472616e736665722066726f6d20696e636f72726563742060008201527f6f776e6572000000000000000000000000000000000000000000000000000000602082015250565b6000613696602583612664565b91506136a18261363a565b604082019050919050565b600060208201905081810360008301526136c581613689565b9050919050565b7f4552433732313a207472616e7366657220746f20746865207a65726f2061646460008201527f7265737300000000000000000000000000000000000000000000000000000000602082015250565b6000613728602483612664565b9150613733826136cc565b604082019050919050565b600060208201905081810360008301526137578161371b565b9050919050565b7f4552433732313a206d696e7420746f20746865207a65726f2061646472657373600082015250565b6000613794602083612664565b915061379f8261375e565b602082019050919050565b600060208201905081810360008301526137c381613787565b9050919050565b7f4552433732313a20746f6b656e20616c7265616479206d696e74656400000000600082015250565b6000613800601c83612664565b915061380b826137ca565b602082019050919050565b6000602082019050818103600083015261382f816137f3565b9050919050565b7f45524337323155524953746f726167653a2055524920736574206f66206e6f6e60008201527f6578697374656e7420746f6b656e000000000000000000000000000000000000602082015250565b6000613892602e83612664565b915061389d82613836565b604082019050919050565b600060208201905081810360008301526138c181613885565b9050919050565b60008190508160005260206000209050919050565b60006020601f8301049050919050565b600082821b905092915050565b60006008830261392a7fffffffffffffffffffffffffffffffffffffffffffffffffffffffffffffffff826138ed565b61393486836138ed565b95508019841693508086168417925050509392505050565b6000819050919050565b600061397161396c6139678461270b565b61394c565b61270b565b9050919050565b6000819050919050565b61398b83613956565b61399f61399782613978565b8484546138fa565b825550505050565b600090565b6139b46139a7565b6139bf818484613982565b505050565b5b818110156139e3576139d86000826139ac565b6001810190506139c5565b5050565b601f821115613a28576139f9816138c8565b613a02846138dd565b81016020851015613a11578190505b613a25613a1d856138dd565b8301826139c4565b50505b505050565b600082821c905092915050565b6000613a4b60001984600802613a2d565b1980831691505092915050565b6000613a648383613a3a565b9150826002028217905092915050565b613a7d82612659565b67ffffffffffffffff811115613a9657613a95612893565b5b613aa08254612d50565b613aab8282856139e7565b600060209050601f831160018114613ade5760008415613acc578287015190505b613ad68582613a58565b865550613b3e565b601f198416613aec866138c8565b60005b82811015613b1457848901518255600182019150602085019450602081019050613aef565b86831015613b315784890151613b2d601f891682613a3a565b8355505b6001600288020188555050505b505050505050565b7f4f776e61626c653a2063616c6c6572206973206e6f7420746865206f776e6572600082015250565b6000613b7c602083612664565b9150613b8782613b46565b602082019050919050565b60006020820190508181036000830152613bab81613b6f565b9050919050565b7f4552433732313a20617070726f766520746f2063616c6c657200000000000000600082015250565b6000613be8601983612664565b9150613bf382613bb2565b602082019050919050565b60006020820190508181036000830152613c1781613bdb565b9050919050565b7f4552433732313a207472616e7366657220746f206e6f6e20455243373231526560008201527f63656976657220696d706c656d656e7465720000000000000000000000000000602082015250565b6000613c7a603283612664565b9150613c8582613c1e565b604082019050919050565b60006020820190508181036000830152613ca981613c6d565b9050919050565b600081519050919050565b600082825260208201905092915050565b6000613cd782613cb0565b613ce18185613cbb565b9350613cf1818560208601612675565b613cfa8161269f565b840191505092915050565b6000608082019050613d1a60008301876127a0565b613d2760208301866127a0565b613d346040830185612a1a565b8181036060830152613d468184613ccc565b905095945050505050565b600081519050613d60816125ca565b92915050565b600060208284031215613d7c57613d7b612594565b5b6000613d8a84828501613d51565b91505092915050565b7f4e487b7100000000000000000000000000000000000000000000000000000000600052601260045260246000fdfea2646970667358221220bed13159e85854fdf830ff5d5a5271f42e035da49b78529760353a47d5741a3464736f6c63430008130033",
  "immutableReferences": {},
  "source": "// SPDX-License-Identifier: MIT\r\npragma solidity ^0.8.19;\r\n\r\nimport \"@openzeppelin/contracts/token/ERC721/ERC721.sol\";\r\nimport \"@openzeppelin/contracts/access/Ownable.sol\";\r\nimport \"@openzeppelin/contracts/token/ERC721/extensions/ERC721URIStorage.sol\";\r\n\r\ncontract ERC721_token is ERC721URIStorage, Ownable {\r\n    uint256 private _tokenIdCounter;\r\n\r\n    //Registered: On sale, Unregistered: Not on sale\r\n    enum ItemStatus {\r\n        Registered, \r\n        Unregistered    \r\n    }\r\n\r\n    struct skin {\r\n        uint256 tokenPrice;\r\n        ItemStatus _itemstatus;\r\n    }\r\n\r\n    mapping(uint256 => skin) public _skin;\r\n\r\n    constructor() Ownable() ERC721(\"Skin\", \"SKN\") {}\r\n\r\n    //Mint NFT with URI and its initial price (ERC 721)\r\n    function mintNFT(string memory tokenURI, uint256 price) public returns (uint256){\r\n        require(price > 0, \"The price cannot be a negative value.\");\r\n        \r\n        uint256 newItemId = _tokenIdCounter;\r\n        _mint(msg.sender, newItemId);\r\n        _setTokenURI(newItemId, tokenURI);\r\n        \r\n        _skin[newItemId] = skin({\r\n            _itemstatus: ItemStatus.Unregistered,\r\n            tokenPrice: price\r\n        });\r\n\r\n        _tokenIdCounter += 1;\r\n\r\n        return newItemId;\r\n    }\r\n\r\n    //Change a price for minted NFT\r\n    function changeTokenPrice(uint256 tokenId, uint256 price) public {\r\n        require(msg.sender == ownerOf(tokenId), \"You can only access tokens you own\");\r\n        require(_skin[tokenId]._itemstatus == ItemStatus.Unregistered, \"You must withdraw this item before you change the price\");\r\n        require(price > 0, \"The price cannot be a negative value.\");\r\n        _skin[tokenId].tokenPrice = price;\r\n    }\r\n\r\n    //Buy NFT that is Registered(On sale)\r\n    function buyNFTItem(uint256 tokenId) public payable {\r\n        require(ownerOf(tokenId) != msg.sender, \"You can't buy your own NFT\");\r\n        require(msg.value >= _skin[tokenId].tokenPrice, \"Insufficient funds\");\r\n        require(_skin[tokenId]._itemstatus == ItemStatus.Registered, \"This item is not available\");\r\n        address owner = ownerOf(tokenId);\r\n        safeTransferFrom(owner, msg.sender, tokenId);\r\n        payable(owner).transfer(msg.value);\r\n        _skin[tokenId]._itemstatus = ItemStatus.Unregistered;\r\n    }\r\n\r\n    function setup(address buyer) public {\r\n        setApprovalForAll(buyer, true);\r\n    }\r\n\r\n    //Display a NFT to sell\r\n    function DisplayItem(uint256 tokenId) public {\r\n        require(msg.sender == ownerOf(tokenId), \"You can only access tokens you own\");\r\n        require(_skin[tokenId]._itemstatus == ItemStatus.Unregistered, \"This item is already being displayed\");\r\n        _skin[tokenId]._itemstatus = ItemStatus.Registered;\r\n    }\r\n\r\n    //Withdraw a NFT to cancel selling\r\n    function UndisplayItem(uint256 tokenId) public {\r\n        require(msg.sender == ownerOf(tokenId), \"You can only access tokens you own\");\r\n        require(_skin[tokenId]._itemstatus == ItemStatus.Registered, \"This item isn't already being displayed\");\r\n        _skin[tokenId]._itemstatus = ItemStatus.Unregistered;\r\n    }\r\n\r\n    function SearchSkin(uint256 tokenId) public view returns (uint256){\r\n        require(_skin[tokenId]._itemstatus == ItemStatus.Registered, \"This item isn't registered on the market\");\r\n        return _skin[tokenId].tokenPrice;\r\n    }\r\n}",
  "sourcePath": "C:\\Users\\Jaehyun\\cse426\\CSE426-Project\\contract\\contracts\\ERC721_token.sol",
  "compiler": {
    "name": "solc",
    "version": "0.8.19+commit.7dd6d404.Emscripten.clang"
  },
  "schemaVersion": "3.4.16",
  "updatedAt": "2023-12-03T04:54:52.441Z",
  "networkType": "ethereum",
  "devdoc": {
    "events": {
      "Approval(address,address,uint256)": {
        "details": "Emitted when `owner` enables `approved` to manage the `tokenId` token."
      },
      "ApprovalForAll(address,address,bool)": {
        "details": "Emitted when `owner` enables or disables (`approved`) `operator` to manage all of its assets."
      },
      "BatchMetadataUpdate(uint256,uint256)": {
        "details": "This event emits when the metadata of a range of tokens is changed. So that the third-party platforms such as NFT market could timely update the images and related attributes of the NFTs."
      },
      "MetadataUpdate(uint256)": {
        "details": "This event emits when the metadata of a token is changed. So that the third-party platforms such as NFT market could timely update the images and related attributes of the NFT."
      },
      "Transfer(address,address,uint256)": {
        "details": "Emitted when `tokenId` token is transferred from `from` to `to`."
      }
    },
    "kind": "dev",
    "methods": {
      "approve(address,uint256)": {
        "details": "See {IERC721-approve}."
      },
      "balanceOf(address)": {
        "details": "See {IERC721-balanceOf}."
      },
      "getApproved(uint256)": {
        "details": "See {IERC721-getApproved}."
      },
      "isApprovedForAll(address,address)": {
        "details": "See {IERC721-isApprovedForAll}."
      },
      "name()": {
        "details": "See {IERC721Metadata-name}."
      },
      "owner()": {
        "details": "Returns the address of the current owner."
      },
      "ownerOf(uint256)": {
        "details": "See {IERC721-ownerOf}."
      },
      "renounceOwnership()": {
        "details": "Leaves the contract without owner. It will not be possible to call `onlyOwner` functions. Can only be called by the current owner. NOTE: Renouncing ownership will leave the contract without an owner, thereby disabling any functionality that is only available to the owner."
      },
      "safeTransferFrom(address,address,uint256)": {
        "details": "See {IERC721-safeTransferFrom}."
      },
      "safeTransferFrom(address,address,uint256,bytes)": {
        "details": "See {IERC721-safeTransferFrom}."
      },
      "setApprovalForAll(address,bool)": {
        "details": "See {IERC721-setApprovalForAll}."
      },
      "supportsInterface(bytes4)": {
        "details": "See {IERC165-supportsInterface}"
      },
      "symbol()": {
        "details": "See {IERC721Metadata-symbol}."
      },
      "tokenURI(uint256)": {
        "details": "See {IERC721Metadata-tokenURI}."
      },
      "transferFrom(address,address,uint256)": {
        "details": "See {IERC721-transferFrom}."
      },
      "transferOwnership(address)": {
        "details": "Transfers ownership of the contract to a new account (`newOwner`). Can only be called by the current owner."
      }
    },
    "version": 1
  },
  "userdoc": {
    "kind": "user",
    "methods": {},
    "version": 1
  }
}