{
  "contractName": "ERC20_token",
  "abi": [
    {
      "inputs": [],
      "stateMutability": "nonpayable",
      "type": "constructor"
    },
    {
      "anonymous": false,
      "inputs": [
        {
          "indexed": true,
          "internalType": "address",
          "name": "owner",
          "type": "address"
        },
        {
          "indexed": true,
          "internalType": "address",
          "name": "spender",
          "type": "address"
        },
        {
          "indexed": false,
          "internalType": "uint256",
          "name": "value",
          "type": "uint256"
        }
      ],
      "name": "Approval",
      "type": "event"
    },
    {
      "anonymous": false,
      "inputs": [
        {
          "indexed": true,
          "internalType": "address",
          "name": "previousOwner",
          "type": "address"
        },
        {
          "indexed": true,
          "internalType": "address",
          "name": "newOwner",
          "type": "address"
        }
      ],
      "name": "OwnershipTransferred",
      "type": "event"
    },
    {
      "anonymous": false,
      "inputs": [
        {
          "indexed": true,
          "internalType": "address",
          "name": "from",
          "type": "address"
        },
        {
          "indexed": true,
          "internalType": "address",
          "name": "to",
          "type": "address"
        },
        {
          "indexed": false,
          "internalType": "uint256",
          "name": "value",
          "type": "uint256"
        }
      ],
      "name": "Transfer",
      "type": "event"
    },
    {
      "inputs": [
        {
          "internalType": "uint256",
          "name": "",
          "type": "uint256"
        }
      ],
      "name": "GItemMap",
      "outputs": [
        {
          "internalType": "uint256",
          "name": "itemId",
          "type": "uint256"
        },
        {
          "internalType": "string",
          "name": "itemName",
          "type": "string"
        },
        {
          "internalType": "uint256",
          "name": "itemPrice",
          "type": "uint256"
        }
      ],
      "stateMutability": "view",
      "type": "function",
      "constant": true
    },
    {
      "inputs": [
        {
          "internalType": "address",
          "name": "owner",
          "type": "address"
        },
        {
          "internalType": "address",
          "name": "spender",
          "type": "address"
        }
      ],
      "name": "allowance",
      "outputs": [
        {
          "internalType": "uint256",
          "name": "",
          "type": "uint256"
        }
      ],
      "stateMutability": "view",
      "type": "function",
      "constant": true
    },
    {
      "inputs": [
        {
          "internalType": "address",
          "name": "spender",
          "type": "address"
        },
        {
          "internalType": "uint256",
          "name": "amount",
          "type": "uint256"
        }
      ],
      "name": "approve",
      "outputs": [
        {
          "internalType": "bool",
          "name": "",
          "type": "bool"
        }
      ],
      "stateMutability": "nonpayable",
      "type": "function"
    },
    {
      "inputs": [
        {
          "internalType": "address",
          "name": "account",
          "type": "address"
        }
      ],
      "name": "balanceOf",
      "outputs": [
        {
          "internalType": "uint256",
          "name": "",
          "type": "uint256"
        }
      ],
      "stateMutability": "view",
      "type": "function",
      "constant": true
    },
    {
      "inputs": [],
      "name": "decimals",
      "outputs": [
        {
          "internalType": "uint8",
          "name": "",
          "type": "uint8"
        }
      ],
      "stateMutability": "view",
      "type": "function",
      "constant": true
    },
    {
      "inputs": [
        {
          "internalType": "address",
          "name": "spender",
          "type": "address"
        },
        {
          "internalType": "uint256",
          "name": "subtractedValue",
          "type": "uint256"
        }
      ],
      "name": "decreaseAllowance",
      "outputs": [
        {
          "internalType": "bool",
          "name": "",
          "type": "bool"
        }
      ],
      "stateMutability": "nonpayable",
      "type": "function"
    },
    {
      "inputs": [
        {
          "internalType": "address",
          "name": "",
          "type": "address"
        }
      ],
      "name": "generalItemsOwned",
      "outputs": [
        {
          "internalType": "uint256",
          "name": "",
          "type": "uint256"
        }
      ],
      "stateMutability": "view",
      "type": "function",
      "constant": true
    },
    {
      "inputs": [],
      "name": "idCount",
      "outputs": [
        {
          "internalType": "uint256",
          "name": "",
          "type": "uint256"
        }
      ],
      "stateMutability": "view",
      "type": "function",
      "constant": true
    },
    {
      "inputs": [
        {
          "internalType": "address",
          "name": "spender",
          "type": "address"
        },
        {
          "internalType": "uint256",
          "name": "addedValue",
          "type": "uint256"
        }
      ],
      "name": "increaseAllowance",
      "outputs": [
        {
          "internalType": "bool",
          "name": "",
          "type": "bool"
        }
      ],
      "stateMutability": "nonpayable",
      "type": "function"
    },
    {
      "inputs": [],
      "name": "name",
      "outputs": [
        {
          "internalType": "string",
          "name": "",
          "type": "string"
        }
      ],
      "stateMutability": "view",
      "type": "function",
      "constant": true
    },
    {
      "inputs": [],
      "name": "owner",
      "outputs": [
        {
          "internalType": "address",
          "name": "",
          "type": "address"
        }
      ],
      "stateMutability": "view",
      "type": "function",
      "constant": true
    },
    {
      "inputs": [],
      "name": "renounceOwnership",
      "outputs": [],
      "stateMutability": "nonpayable",
      "type": "function"
    },
    {
      "inputs": [],
      "name": "symbol",
      "outputs": [
        {
          "internalType": "string",
          "name": "",
          "type": "string"
        }
      ],
      "stateMutability": "view",
      "type": "function",
      "constant": true
    },
    {
      "inputs": [],
      "name": "totalSupply",
      "outputs": [
        {
          "internalType": "uint256",
          "name": "",
          "type": "uint256"
        }
      ],
      "stateMutability": "view",
      "type": "function",
      "constant": true
    },
    {
      "inputs": [
        {
          "internalType": "address",
          "name": "to",
          "type": "address"
        },
        {
          "internalType": "uint256",
          "name": "amount",
          "type": "uint256"
        }
      ],
      "name": "transfer",
      "outputs": [
        {
          "internalType": "bool",
          "name": "",
          "type": "bool"
        }
      ],
      "stateMutability": "nonpayable",
      "type": "function"
    },
    {
      "inputs": [
        {
          "internalType": "address",
          "name": "from",
          "type": "address"
        },
        {
          "internalType": "address",
          "name": "to",
          "type": "address"
        },
        {
          "internalType": "uint256",
          "name": "amount",
          "type": "uint256"
        }
      ],
      "name": "transferFrom",
      "outputs": [
        {
          "internalType": "bool",
          "name": "",
          "type": "bool"
        }
      ],
      "stateMutability": "nonpayable",
      "type": "function"
    },
    {
      "inputs": [
        {
          "internalType": "address",
          "name": "newOwner",
          "type": "address"
        }
      ],
      "name": "transferOwnership",
      "outputs": [],
      "stateMutability": "nonpayable",
      "type": "function"
    },
    {
      "inputs": [
        {
          "internalType": "address",
          "name": "_to",
          "type": "address"
        }
      ],
      "name": "giveGold",
      "outputs": [],
      "stateMutability": "nonpayable",
      "type": "function"
    },
    {
      "inputs": [
        {
          "internalType": "string",
          "name": "_name",
          "type": "string"
        },
        {
          "internalType": "uint256",
          "name": "_price",
          "type": "uint256"
        }
      ],
      "name": "registerNewItem",
      "outputs": [],
      "stateMutability": "nonpayable",
      "type": "function"
    },
    {
      "inputs": [
        {
          "internalType": "uint256",
          "name": "_id",
          "type": "uint256"
        }
      ],
      "name": "purchaseGeneralItem",
      "outputs": [],
      "stateMutability": "nonpayable",
      "type": "function"
    },
    {
      "inputs": [
        {
          "internalType": "uint256",
          "name": "_id",
          "type": "uint256"
        }
      ],
      "name": "displayItems",
      "outputs": [
        {
          "components": [
            {
              "internalType": "uint256",
              "name": "itemId",
              "type": "uint256"
            },
            {
              "internalType": "string",
              "name": "itemName",
              "type": "string"
            },
            {
              "internalType": "uint256",
              "name": "itemPrice",
              "type": "uint256"
            }
          ],
          "internalType": "struct ERC20_token.GItem",
          "name": "",
          "type": "tuple"
        }
      ],
      "stateMutability": "view",
      "type": "function",
      "constant": true
    },
    {
      "inputs": [
        {
          "internalType": "uint256",
          "name": "_id",
          "type": "uint256"
        }
      ],
      "name": "searchItemPrice",
      "outputs": [
        {
          "internalType": "uint256",
          "name": "",
          "type": "uint256"
        }
      ],
      "stateMutability": "view",
      "type": "function",
      "constant": true
    }
  ],
  "bytecode": "0x60806040523480156200001157600080fd5b506040518060400160405280600b81526020017f496e67616d654d6f6e65790000000000000000000000000000000000000000008152506040518060400160405280600481526020017f476f6c640000000000000000000000000000000000000000000000000000000081525081600390816200008f9190620005d4565b508060049081620000a19190620005d4565b505050620000c4620000b86200010c60201b60201c565b6200011460201b60201c565b6200010633620000d9620001da60201b60201c565b60ff16600a620000ea91906200083e565b620f4240620000fa91906200088f565b620001e360201b60201c565b620009c6565b600033905090565b6000600560009054906101000a900473ffffffffffffffffffffffffffffffffffffffff16905081600560006101000a81548173ffffffffffffffffffffffffffffffffffffffff021916908373ffffffffffffffffffffffffffffffffffffffff1602179055508173ffffffffffffffffffffffffffffffffffffffff168173ffffffffffffffffffffffffffffffffffffffff167f8be0079c531659141344cd1fd0a4f28419497f9722a3daafe3b4186f6b6457e060405160405180910390a35050565b60006012905090565b600073ffffffffffffffffffffffffffffffffffffffff168273ffffffffffffffffffffffffffffffffffffffff160362000255576040517f08c379a00000000000000000000000000000000000000000000000000000000081526004016200024c906200093b565b60405180910390fd5b62000269600083836200035060201b60201c565b80600260008282546200027d91906200095d565b92505081905550806000808473ffffffffffffffffffffffffffffffffffffffff1673ffffffffffffffffffffffffffffffffffffffff168152602001908152602001600020600082825401925050819055508173ffffffffffffffffffffffffffffffffffffffff16600073ffffffffffffffffffffffffffffffffffffffff167fddf252ad1be2c89b69c2b068fc378daa952ba7f163c4a11628f55a4df523b3ef83604051620003309190620009a9565b60405180910390a36200034c600083836200035560201b60201c565b5050565b505050565b505050565b600081519050919050565b7f4e487b7100000000000000000000000000000000000000000000000000000000600052604160045260246000fd5b7f4e487b7100000000000000000000000000000000000000000000000000000000600052602260045260246000fd5b60006002820490506001821680620003dc57607f821691505b602082108103620003f257620003f162000394565b5b50919050565b60008190508160005260206000209050919050565b60006020601f8301049050919050565b600082821b905092915050565b6000600883026200045c7fffffffffffffffffffffffffffffffffffffffffffffffffffffffffffffffff826200041d565b6200046886836200041d565b95508019841693508086168417925050509392505050565b6000819050919050565b6000819050919050565b6000620004b5620004af620004a98462000480565b6200048a565b62000480565b9050919050565b6000819050919050565b620004d18362000494565b620004e9620004e082620004bc565b8484546200042a565b825550505050565b600090565b62000500620004f1565b6200050d818484620004c6565b505050565b5b81811015620005355762000529600082620004f6565b60018101905062000513565b5050565b601f82111562000584576200054e81620003f8565b62000559846200040d565b8101602085101562000569578190505b6200058162000578856200040d565b83018262000512565b50505b505050565b600082821c905092915050565b6000620005a96000198460080262000589565b1980831691505092915050565b6000620005c4838362000596565b9150826002028217905092915050565b620005df826200035a565b67ffffffffffffffff811115620005fb57620005fa62000365565b5b620006078254620003c3565b6200061482828562000539565b600060209050601f8311600181146200064c576000841562000637578287015190505b620006438582620005b6565b865550620006b3565b601f1984166200065c86620003f8565b60005b8281101562000686578489015182556001820191506020850194506020810190506200065f565b86831015620006a65784890151620006a2601f89168262000596565b8355505b6001600288020188555050505b505050505050565b7f4e487b7100000000000000000000000000000000000000000000000000000000600052601160045260246000fd5b60008160011c9050919050565b6000808291508390505b60018511156200074957808604811115620007215762000720620006bb565b5b6001851615620007315780820291505b80810290506200074185620006ea565b945062000701565b94509492505050565b60008262000764576001905062000837565b8162000774576000905062000837565b81600181146200078d57600281146200079857620007ce565b600191505062000837565b60ff841115620007ad57620007ac620006bb565b5b8360020a915084821115620007c757620007c6620006bb565b5b5062000837565b5060208310610133831016604e8410600b8410161715620008085782820a905083811115620008025762000801620006bb565b5b62000837565b620008178484846001620006f7565b92509050818404811115620008315762000830620006bb565b5b81810290505b9392505050565b60006200084b8262000480565b9150620008588362000480565b9250620008877fffffffffffffffffffffffffffffffffffffffffffffffffffffffffffffffff848462000752565b905092915050565b60006200089c8262000480565b9150620008a98362000480565b9250828202620008b98162000480565b91508282048414831517620008d357620008d2620006bb565b5b5092915050565b600082825260208201905092915050565b7f45524332303a206d696e7420746f20746865207a65726f206164647265737300600082015250565b600062000923601f83620008da565b91506200093082620008eb565b602082019050919050565b60006020820190508181036000830152620009568162000914565b9050919050565b60006200096a8262000480565b9150620009778362000480565b9250828201905080821115620009925762000991620006bb565b5b92915050565b620009a38162000480565b82525050565b6000602082019050620009c0600083018462000998565b92915050565b61279180620009d66000396000f3fe608060405234801561001057600080fd5b50600436106101425760003560e01c80638da5cb5b116100b8578063a9059cbb1161007c578063a9059cbb146103a1578063d3a26dfd146103d1578063dd62ed3e14610401578063e6e4623814610431578063f2fde38b1461044f578063f45e5df91461046b57610142565b80638da5cb5b146102d357806395d89b41146102f1578063a2342b5f1461030f578063a413542514610341578063a457c2d71461037157610142565b806323b872dd1161010a57806323b872dd146101ff578063313ce5671461022f578063395093511461024d57806370a082311461027d578063715018a6146102ad5780638d520c6b146102b757610142565b80630575e6481461014757806306fdde0314610177578063095ea7b31461019557806314d14d8a146101c557806318160ddd146101e1575b600080fd5b610161600480360381019061015c919061151c565b610487565b60405161016e9190611638565b60405180910390f35b61017f61059e565b60405161018c91906116a4565b60405180910390f35b6101af60048036038101906101aa9190611724565b610630565b6040516101bc919061177f565b60405180910390f35b6101df60048036038101906101da919061179a565b610653565b005b6101e9610684565b6040516101f691906117d6565b60405180910390f35b610219600480360381019061021491906117f1565b61068e565b604051610226919061177f565b60405180910390f35b6102376106bd565b6040516102449190611860565b60405180910390f35b61026760048036038101906102629190611724565b6106c6565b604051610274919061177f565b60405180910390f35b6102976004803603810190610292919061179a565b6106fd565b6040516102a491906117d6565b60405180910390f35b6102b5610745565b005b6102d160048036038101906102cc91906119b0565b610759565b005b6102db610869565b6040516102e89190611a1b565b60405180910390f35b6102f9610893565b60405161030691906116a4565b60405180910390f35b6103296004803603810190610324919061151c565b610925565b60405161033893929190611a36565b60405180910390f35b61035b6004803603810190610356919061179a565b6109d7565b60405161036891906117d6565b60405180910390f35b61038b60048036038101906103869190611724565b6109ef565b604051610398919061177f565b60405180910390f35b6103bb60048036038101906103b69190611724565b610a66565b6040516103c8919061177f565b60405180910390f35b6103eb60048036038101906103e6919061151c565b610a89565b6040516103f891906117d6565b60405180910390f35b61041b60048036038101906104169190611a74565b610aed565b60405161042891906117d6565b60405180910390f35b610439610b74565b60405161044691906117d6565b60405180910390f35b6104696004803603810190610464919061179a565b610b7a565b005b6104856004803603810190610480919061151c565b610bfd565b005b61048f6114b1565b60065482106104d3576040517f08c379a00000000000000000000000000000000000000000000000000000000081526004016104ca90611b00565b60405180910390fd5b600860008381526020019081526020016000206040518060600160405290816000820154815260200160018201805461050b90611b4f565b80601f016020809104026020016040519081016040528092919081815260200182805461053790611b4f565b80156105845780601f1061055957610100808354040283529160200191610584565b820191906000526020600020905b81548152906001019060200180831161056757829003601f168201915b505050505081526020016002820154815250509050919050565b6060600380546105ad90611b4f565b80601f01602080910402602001604051908101604052809291908181526020018280546105d990611b4f565b80156106265780601f106105fb57610100808354040283529160200191610626565b820191906000526020600020905b81548152906001019060200180831161060957829003601f168201915b5050505050905090565b60008061063b610d3a565b9050610648818585610d42565b600191505092915050565b6106818161065f6106bd565b60ff16600a61066e9190611ce2565b620f424061067c9190611d2d565b610f0b565b50565b6000600254905090565b600080610699610d3a565b90506106a6858285611061565b6106b18585856110ed565b60019150509392505050565b60006012905090565b6000806106d1610d3a565b90506106f28185856106e38589610aed565b6106ed9190611d6f565b610d42565b600191505092915050565b60008060008373ffffffffffffffffffffffffffffffffffffffff1673ffffffffffffffffffffffffffffffffffffffff168152602001908152602001600020549050919050565b61074d611363565b61075760006113e1565b565b610761611363565b60008251116107a5576040517f08c379a000000000000000000000000000000000000000000000000000000000815260040161079c90611def565b60405180910390fd5b600081116107e8576040517f08c379a00000000000000000000000000000000000000000000000000000000081526004016107df90611e5b565b60405180910390fd5b6000604051806060016040528060065481526020018481526020018381525090508060086000600654815260200190815260200160002060008201518160000155602082015181600101908161083e9190612027565b50604082015181600201559050506006600081548092919061085f906120f9565b9190505550505050565b6000600560009054906101000a900473ffffffffffffffffffffffffffffffffffffffff16905090565b6060600480546108a290611b4f565b80601f01602080910402602001604051908101604052809291908181526020018280546108ce90611b4f565b801561091b5780601f106108f05761010080835404028352916020019161091b565b820191906000526020600020905b8154815290600101906020018083116108fe57829003601f168201915b5050505050905090565b600860205280600052604060002060009150905080600001549080600101805461094e90611b4f565b80601f016020809104026020016040519081016040528092919081815260200182805461097a90611b4f565b80156109c75780601f1061099c576101008083540402835291602001916109c7565b820191906000526020600020905b8154815290600101906020018083116109aa57829003601f168201915b5050505050908060020154905083565b60076020528060005260406000206000915090505481565b6000806109fa610d3a565b90506000610a088286610aed565b905083811015610a4d576040517f08c379a0000000000000000000000000000000000000000000000000000000008152600401610a44906121b3565b60405180910390fd5b610a5a8286868403610d42565b60019250505092915050565b600080610a71610d3a565b9050610a7e8185856110ed565b600191505092915050565b60006006548210610acf576040517f08c379a0000000000000000000000000000000000000000000000000000000008152600401610ac690611b00565b60405180910390fd5b60086000838152602001908152602001600020600201549050919050565b6000600160008473ffffffffffffffffffffffffffffffffffffffff1673ffffffffffffffffffffffffffffffffffffffff16815260200190815260200160002060008373ffffffffffffffffffffffffffffffffffffffff1673ffffffffffffffffffffffffffffffffffffffff16815260200190815260200160002054905092915050565b60065481565b610b82611363565b600073ffffffffffffffffffffffffffffffffffffffff168173ffffffffffffffffffffffffffffffffffffffff1603610bf1576040517f08c379a0000000000000000000000000000000000000000000000000000000008152600401610be890612245565b60405180910390fd5b610bfa816113e1565b50565b6006548110610c41576040517f08c379a0000000000000000000000000000000000000000000000000000000008152600401610c38906122b1565b60405180910390fd5b60006001610c4d6106bd565b60ff16600a610c5c9190611ce2565b6008600085815260200190815260200160002060020154610c7d9190611d2d565b610c879190611d2d565b905080610c93336106fd565b1015610cd4576040517f08c379a0000000000000000000000000000000000000000000000000000000008152600401610ccb9061231d565b60405180910390fd5b610cdf3330836110ed565b6001600760003373ffffffffffffffffffffffffffffffffffffffff1673ffffffffffffffffffffffffffffffffffffffff1681526020019081526020016000206000828254610d2f9190611d6f565b925050819055505050565b600033905090565b600073ffffffffffffffffffffffffffffffffffffffff168373ffffffffffffffffffffffffffffffffffffffff1603610db1576040517f08c379a0000000000000000000000000000000000000000000000000000000008152600401610da8906123af565b60405180910390fd5b600073ffffffffffffffffffffffffffffffffffffffff168273ffffffffffffffffffffffffffffffffffffffff1603610e20576040517f08c379a0000000000000000000000000000000000000000000000000000000008152600401610e1790612441565b60405180910390fd5b80600160008573ffffffffffffffffffffffffffffffffffffffff1673ffffffffffffffffffffffffffffffffffffffff16815260200190815260200160002060008473ffffffffffffffffffffffffffffffffffffffff1673ffffffffffffffffffffffffffffffffffffffff168152602001908152602001600020819055508173ffffffffffffffffffffffffffffffffffffffff168373ffffffffffffffffffffffffffffffffffffffff167f8c5be1e5ebec7d5bd14f71427d1e84f3dd0314c0f7b2291e5b200ac8c7c3b92583604051610efe91906117d6565b60405180910390a3505050565b600073ffffffffffffffffffffffffffffffffffffffff168273ffffffffffffffffffffffffffffffffffffffff1603610f7a576040517f08c379a0000000000000000000000000000000000000000000000000000000008152600401610f71906124ad565b60405180910390fd5b610f86600083836114a7565b8060026000828254610f989190611d6f565b92505081905550806000808473ffffffffffffffffffffffffffffffffffffffff1673ffffffffffffffffffffffffffffffffffffffff168152602001908152602001600020600082825401925050819055508173ffffffffffffffffffffffffffffffffffffffff16600073ffffffffffffffffffffffffffffffffffffffff167fddf252ad1be2c89b69c2b068fc378daa952ba7f163c4a11628f55a4df523b3ef8360405161104991906117d6565b60405180910390a361105d600083836114ac565b5050565b600061106d8484610aed565b90507fffffffffffffffffffffffffffffffffffffffffffffffffffffffffffffffff81146110e757818110156110d9576040517f08c379a00000000000000000000000000000000000000000000000000000000081526004016110d090612519565b60405180910390fd5b6110e68484848403610d42565b5b50505050565b600073ffffffffffffffffffffffffffffffffffffffff168373ffffffffffffffffffffffffffffffffffffffff160361115c576040517f08c379a0000000000000000000000000000000000000000000000000000000008152600401611153906125ab565b60405180910390fd5b600073ffffffffffffffffffffffffffffffffffffffff168273ffffffffffffffffffffffffffffffffffffffff16036111cb576040517f08c379a00000000000000000000000000000000000000000000000000000000081526004016111c29061263d565b60405180910390fd5b6111d68383836114a7565b60008060008573ffffffffffffffffffffffffffffffffffffffff1673ffffffffffffffffffffffffffffffffffffffff1681526020019081526020016000205490508181101561125c576040517f08c379a0000000000000000000000000000000000000000000000000000000008152600401611253906126cf565b60405180910390fd5b8181036000808673ffffffffffffffffffffffffffffffffffffffff1673ffffffffffffffffffffffffffffffffffffffff16815260200190815260200160002081905550816000808573ffffffffffffffffffffffffffffffffffffffff1673ffffffffffffffffffffffffffffffffffffffff168152602001908152602001600020600082825401925050819055508273ffffffffffffffffffffffffffffffffffffffff168473ffffffffffffffffffffffffffffffffffffffff167fddf252ad1be2c89b69c2b068fc378daa952ba7f163c4a11628f55a4df523b3ef8460405161134a91906117d6565b60405180910390a361135d8484846114ac565b50505050565b61136b610d3a565b73ffffffffffffffffffffffffffffffffffffffff16611389610869565b73ffffffffffffffffffffffffffffffffffffffff16146113df576040517f08c379a00000000000000000000000000000000000000000000000000000000081526004016113d69061273b565b60405180910390fd5b565b6000600560009054906101000a900473ffffffffffffffffffffffffffffffffffffffff16905081600560006101000a81548173ffffffffffffffffffffffffffffffffffffffff021916908373ffffffffffffffffffffffffffffffffffffffff1602179055508173ffffffffffffffffffffffffffffffffffffffff168173ffffffffffffffffffffffffffffffffffffffff167f8be0079c531659141344cd1fd0a4f28419497f9722a3daafe3b4186f6b6457e060405160405180910390a35050565b505050565b505050565b60405180606001604052806000815260200160608152602001600081525090565b6000604051905090565b600080fd5b600080fd5b6000819050919050565b6114f9816114e6565b811461150457600080fd5b50565b600081359050611516816114f0565b92915050565b600060208284031215611532576115316114dc565b5b600061154084828501611507565b91505092915050565b611552816114e6565b82525050565b600081519050919050565b600082825260208201905092915050565b60005b83811015611592578082015181840152602081019050611577565b60008484015250505050565b6000601f19601f8301169050919050565b60006115ba82611558565b6115c48185611563565b93506115d4818560208601611574565b6115dd8161159e565b840191505092915050565b60006060830160008301516116006000860182611549565b506020830151848203602086015261161882826115af565b915050604083015161162d6040860182611549565b508091505092915050565b6000602082019050818103600083015261165281846115e8565b905092915050565b600082825260208201905092915050565b600061167682611558565b611680818561165a565b9350611690818560208601611574565b6116998161159e565b840191505092915050565b600060208201905081810360008301526116be818461166b565b905092915050565b600073ffffffffffffffffffffffffffffffffffffffff82169050919050565b60006116f1826116c6565b9050919050565b611701816116e6565b811461170c57600080fd5b50565b60008135905061171e816116f8565b92915050565b6000806040838503121561173b5761173a6114dc565b5b60006117498582860161170f565b925050602061175a85828601611507565b9150509250929050565b60008115159050919050565b61177981611764565b82525050565b60006020820190506117946000830184611770565b92915050565b6000602082840312156117b0576117af6114dc565b5b60006117be8482850161170f565b91505092915050565b6117d0816114e6565b82525050565b60006020820190506117eb60008301846117c7565b92915050565b60008060006060848603121561180a576118096114dc565b5b60006118188682870161170f565b93505060206118298682870161170f565b925050604061183a86828701611507565b9150509250925092565b600060ff82169050919050565b61185a81611844565b82525050565b60006020820190506118756000830184611851565b92915050565b600080fd5b600080fd5b7f4e487b7100000000000000000000000000000000000000000000000000000000600052604160045260246000fd5b6118bd8261159e565b810181811067ffffffffffffffff821117156118dc576118db611885565b5b80604052505050565b60006118ef6114d2565b90506118fb82826118b4565b919050565b600067ffffffffffffffff82111561191b5761191a611885565b5b6119248261159e565b9050602081019050919050565b82818337600083830152505050565b600061195361194e84611900565b6118e5565b90508281526020810184848401111561196f5761196e611880565b5b61197a848285611931565b509392505050565b600082601f8301126119975761199661187b565b5b81356119a7848260208601611940565b91505092915050565b600080604083850312156119c7576119c66114dc565b5b600083013567ffffffffffffffff8111156119e5576119e46114e1565b5b6119f185828601611982565b9250506020611a0285828601611507565b9150509250929050565b611a15816116e6565b82525050565b6000602082019050611a306000830184611a0c565b92915050565b6000606082019050611a4b60008301866117c7565b8181036020830152611a5d818561166b565b9050611a6c60408301846117c7565b949350505050565b60008060408385031215611a8b57611a8a6114dc565b5b6000611a998582860161170f565b9250506020611aaa8582860161170f565b9150509250929050565b7f43616e27742066696e6420746865206974656d206f6620746865204944000000600082015250565b6000611aea601d8361165a565b9150611af582611ab4565b602082019050919050565b60006020820190508181036000830152611b1981611add565b9050919050565b7f4e487b7100000000000000000000000000000000000000000000000000000000600052602260045260246000fd5b60006002820490506001821680611b6757607f821691505b602082108103611b7a57611b79611b20565b5b50919050565b7f4e487b7100000000000000000000000000000000000000000000000000000000600052601160045260246000fd5b60008160011c9050919050565b6000808291508390505b6001851115611c0657808604811115611be257611be1611b80565b5b6001851615611bf15780820291505b8081029050611bff85611baf565b9450611bc6565b94509492505050565b600082611c1f5760019050611cdb565b81611c2d5760009050611cdb565b8160018114611c435760028114611c4d57611c7c565b6001915050611cdb565b60ff841115611c5f57611c5e611b80565b5b8360020a915084821115611c7657611c75611b80565b5b50611cdb565b5060208310610133831016604e8410600b8410161715611cb15782820a905083811115611cac57611cab611b80565b5b611cdb565b611cbe8484846001611bbc565b92509050818404811115611cd557611cd4611b80565b5b81810290505b9392505050565b6000611ced826114e6565b9150611cf8836114e6565b9250611d257fffffffffffffffffffffffffffffffffffffffffffffffffffffffffffffffff8484611c0f565b905092915050565b6000611d38826114e6565b9150611d43836114e6565b9250828202611d51816114e6565b91508282048414831517611d6857611d67611b80565b5b5092915050565b6000611d7a826114e6565b9150611d85836114e6565b9250828201905080821115611d9d57611d9c611b80565b5b92915050565b7f506c656173652073657420746865206e616d652e000000000000000000000000600082015250565b6000611dd960148361165a565b9150611de482611da3565b602082019050919050565b60006020820190508181036000830152611e0881611dcc565b9050919050565b7f5072696365206d75737420626520626967676572207468616e20302e00000000600082015250565b6000611e45601c8361165a565b9150611e5082611e0f565b602082019050919050565b60006020820190508181036000830152611e7481611e38565b9050919050565b60008190508160005260206000209050919050565b60006020601f8301049050919050565b600082821b905092915050565b600060088302611edd7fffffffffffffffffffffffffffffffffffffffffffffffffffffffffffffffff82611ea0565b611ee78683611ea0565b95508019841693508086168417925050509392505050565b6000819050919050565b6000611f24611f1f611f1a846114e6565b611eff565b6114e6565b9050919050565b6000819050919050565b611f3e83611f09565b611f52611f4a82611f2b565b848454611ead565b825550505050565b600090565b611f67611f5a565b611f72818484611f35565b505050565b5b81811015611f9657611f8b600082611f5f565b600181019050611f78565b5050565b601f821115611fdb57611fac81611e7b565b611fb584611e90565b81016020851015611fc4578190505b611fd8611fd085611e90565b830182611f77565b50505b505050565b600082821c905092915050565b6000611ffe60001984600802611fe0565b1980831691505092915050565b60006120178383611fed565b9150826002028217905092915050565b61203082611558565b67ffffffffffffffff81111561204957612048611885565b5b6120538254611b4f565b61205e828285611f9a565b600060209050601f831160018114612091576000841561207f578287015190505b612089858261200b565b8655506120f1565b601f19841661209f86611e7b565b60005b828110156120c7578489015182556001820191506020850194506020810190506120a2565b868310156120e457848901516120e0601f891682611fed565b8355505b6001600288020188555050505b505050505050565b6000612104826114e6565b91507fffffffffffffffffffffffffffffffffffffffffffffffffffffffffffffffff820361213657612135611b80565b5b600182019050919050565b7f45524332303a2064656372656173656420616c6c6f77616e63652062656c6f7760008201527f207a65726f000000000000000000000000000000000000000000000000000000602082015250565b600061219d60258361165a565b91506121a882612141565b604082019050919050565b600060208201905081810360008301526121cc81612190565b9050919050565b7f4f776e61626c653a206e6577206f776e657220697320746865207a65726f206160008201527f6464726573730000000000000000000000000000000000000000000000000000602082015250565b600061222f60268361165a565b915061223a826121d3565b604082019050919050565b6000602082019050818103600083015261225e81612222565b9050919050565b7f496e76616c696420494400000000000000000000000000000000000000000000600082015250565b600061229b600a8361165a565b91506122a682612265565b602082019050919050565b600060208201905081810360008301526122ca8161228e565b9050919050565b7f4e6f7420656e6f75676820476f6c640000000000000000000000000000000000600082015250565b6000612307600f8361165a565b9150612312826122d1565b602082019050919050565b60006020820190508181036000830152612336816122fa565b9050919050565b7f45524332303a20617070726f76652066726f6d20746865207a65726f2061646460008201527f7265737300000000000000000000000000000000000000000000000000000000602082015250565b600061239960248361165a565b91506123a48261233d565b604082019050919050565b600060208201905081810360008301526123c88161238c565b9050919050565b7f45524332303a20617070726f766520746f20746865207a65726f20616464726560008201527f7373000000000000000000000000000000000000000000000000000000000000602082015250565b600061242b60228361165a565b9150612436826123cf565b604082019050919050565b6000602082019050818103600083015261245a8161241e565b9050919050565b7f45524332303a206d696e7420746f20746865207a65726f206164647265737300600082015250565b6000612497601f8361165a565b91506124a282612461565b602082019050919050565b600060208201905081810360008301526124c68161248a565b9050919050565b7f45524332303a20696e73756666696369656e7420616c6c6f77616e6365000000600082015250565b6000612503601d8361165a565b915061250e826124cd565b602082019050919050565b60006020820190508181036000830152612532816124f6565b9050919050565b7f45524332303a207472616e736665722066726f6d20746865207a65726f20616460008201527f6472657373000000000000000000000000000000000000000000000000000000602082015250565b600061259560258361165a565b91506125a082612539565b604082019050919050565b600060208201905081810360008301526125c481612588565b9050919050565b7f45524332303a207472616e7366657220746f20746865207a65726f206164647260008201527f6573730000000000000000000000000000000000000000000000000000000000602082015250565b600061262760238361165a565b9150612632826125cb565b604082019050919050565b600060208201905081810360008301526126568161261a565b9050919050565b7f45524332303a207472616e7366657220616d6f756e742065786365656473206260008201527f616c616e63650000000000000000000000000000000000000000000000000000602082015250565b60006126b960268361165a565b91506126c48261265d565b604082019050919050565b600060208201905081810360008301526126e8816126ac565b9050919050565b7f4f776e61626c653a2063616c6c6572206973206e6f7420746865206f776e6572600082015250565b600061272560208361165a565b9150612730826126ef565b602082019050919050565b6000602082019050818103600083015261275481612718565b905091905056fea26469706673582212200ebb6ac94d6faf9fabdea5c2730cf6ee4dc1ee33170f8f6aa03cf9116929aa9064736f6c63430008130033",
  "immutableReferences": {},
  "source": "// SPDX-License-Identifier: MIT\r\npragma solidity ^0.8.19;\r\n\r\n\r\nimport \"@openzeppelin/contracts/token/ERC20/ERC20.sol\";\r\nimport \"@openzeppelin/contracts/access/Ownable.sol\";\r\n\r\n\r\ncontract ERC20_token is ERC20, Ownable {\r\n    struct GItem {\r\n        uint256 itemId;\r\n        string itemName;\r\n        uint256 itemPrice;\r\n    }\r\n\r\n\r\n    uint256 public idCount;\r\n    mapping(address => uint256) public generalItemsOwned;\r\n    mapping(uint256 => GItem) public GItemMap;\r\n\r\n\r\n    constructor() Ownable() ERC20(\"IngameMoney\", \"Gold\") {\r\n        _mint(msg.sender, 1000000 * (10 ** uint256(decimals())));\r\n    }\r\n\r\n\r\n    function giveGold(address _to) public{\r\n        _mint(_to, 1000000 * (10 ** uint256(decimals())));\r\n    }\r\n\r\n\r\n    function registerNewItem (string memory _name, uint256 _price) public onlyOwner{\r\n        require(bytes(_name).length > 0, \"Please set the name.\");\r\n        require(_price > 0, \"Price must be bigger than 0.\");\r\n\r\n\r\n        GItem memory newItem = GItem ({\r\n            itemId: idCount,\r\n            itemName: _name,\r\n            itemPrice: _price\r\n        });\r\n        GItemMap[idCount] = newItem;\r\n        idCount++;\r\n    }\r\n\r\n\r\n    function purchaseGeneralItem(uint256 _id) public {\r\n        require(_id < idCount, \"Invalid ID\");\r\n        uint256 totalPrice = GItemMap[_id].itemPrice * (10 ** uint256(decimals())) * 1;\r\n        require(balanceOf(msg.sender) >= totalPrice, \"Not enough Gold\");\r\n       \r\n        _transfer(msg.sender, address(this), totalPrice);\r\n        generalItemsOwned[msg.sender] += 1;\r\n    }\r\n\r\n\r\n    function displayItems(uint256 _id) public view returns (GItem memory) {\r\n        require(_id < idCount, \"Can't find the item of the ID\");\r\n        return GItemMap[_id];\r\n    }\r\n\r\n    function searchItemPrice(uint256 _id) public view returns (uint256) {\r\n        require(_id < idCount, \"Can't find the item of the ID\");\r\n        return GItemMap[_id].itemPrice;\r\n    }\r\n}\r\n",
  "sourcePath": "C:\\Users\\Jaehyun\\cse426\\cse426-project-jay\\contract\\contracts\\ERC20_token.sol",
  "compiler": {
    "name": "solc",
    "version": "0.8.19+commit.7dd6d404.Emscripten.clang"
  },
  "schemaVersion": "3.4.16",
  "updatedAt": "2023-12-03T05:08:49.815Z",
  "networkType": "ethereum",
  "devdoc": {
    "events": {
      "Approval(address,address,uint256)": {
        "details": "Emitted when the allowance of a `spender` for an `owner` is set by a call to {approve}. `value` is the new allowance."
      },
      "Transfer(address,address,uint256)": {
        "details": "Emitted when `value` tokens are moved from one account (`from`) to another (`to`). Note that `value` may be zero."
      }
    },
    "kind": "dev",
    "methods": {
      "allowance(address,address)": {
        "details": "See {IERC20-allowance}."
      },
      "approve(address,uint256)": {
        "details": "See {IERC20-approve}. NOTE: If `amount` is the maximum `uint256`, the allowance is not updated on `transferFrom`. This is semantically equivalent to an infinite approval. Requirements: - `spender` cannot be the zero address."
      },
      "balanceOf(address)": {
        "details": "See {IERC20-balanceOf}."
      },
      "decimals()": {
        "details": "Returns the number of decimals used to get its user representation. For example, if `decimals` equals `2`, a balance of `505` tokens should be displayed to a user as `5.05` (`505 / 10 ** 2`). Tokens usually opt for a value of 18, imitating the relationship between Ether and Wei. This is the default value returned by this function, unless it's overridden. NOTE: This information is only used for _display_ purposes: it in no way affects any of the arithmetic of the contract, including {IERC20-balanceOf} and {IERC20-transfer}."
      },
      "decreaseAllowance(address,uint256)": {
        "details": "Atomically decreases the allowance granted to `spender` by the caller. This is an alternative to {approve} that can be used as a mitigation for problems described in {IERC20-approve}. Emits an {Approval} event indicating the updated allowance. Requirements: - `spender` cannot be the zero address. - `spender` must have allowance for the caller of at least `subtractedValue`."
      },
      "increaseAllowance(address,uint256)": {
        "details": "Atomically increases the allowance granted to `spender` by the caller. This is an alternative to {approve} that can be used as a mitigation for problems described in {IERC20-approve}. Emits an {Approval} event indicating the updated allowance. Requirements: - `spender` cannot be the zero address."
      },
      "name()": {
        "details": "Returns the name of the token."
      },
      "owner()": {
        "details": "Returns the address of the current owner."
      },
      "renounceOwnership()": {
        "details": "Leaves the contract without owner. It will not be possible to call `onlyOwner` functions. Can only be called by the current owner. NOTE: Renouncing ownership will leave the contract without an owner, thereby disabling any functionality that is only available to the owner."
      },
      "symbol()": {
        "details": "Returns the symbol of the token, usually a shorter version of the name."
      },
      "totalSupply()": {
        "details": "See {IERC20-totalSupply}."
      },
      "transfer(address,uint256)": {
        "details": "See {IERC20-transfer}. Requirements: - `to` cannot be the zero address. - the caller must have a balance of at least `amount`."
      },
      "transferFrom(address,address,uint256)": {
        "details": "See {IERC20-transferFrom}. Emits an {Approval} event indicating the updated allowance. This is not required by the EIP. See the note at the beginning of {ERC20}. NOTE: Does not update the allowance if the current allowance is the maximum `uint256`. Requirements: - `from` and `to` cannot be the zero address. - `from` must have a balance of at least `amount`. - the caller must have allowance for ``from``'s tokens of at least `amount`."
      },
      "transferOwnership(address)": {
        "details": "Transfers ownership of the contract to a new account (`newOwner`). Can only be called by the current owner."
      }
    },
    "version": 1
  },
  "userdoc": {
    "kind": "user",
    "methods": {},
    "version": 1
  }
}